{
  "transactions": [
    {
      "hash": "0xf64420632a668595d13a3bc7e0e6e6bc3df633c7ad730cee5bef3ec55c59efbb",
      "transactionType": "CALL",
      "contractName": null,
      "contractAddress": "0x12b067d6755340bd03fdfa370d73a84f7ad06c19",
      "function": "mint(address,uint256)",
      "arguments": [
        "0x29F4D70A6F8Fdd15Ee20231B840089e8AED2aE76",
        "1089077118886462112614"
      ],
      "transaction": {
        "from": "0x29f4d70a6f8fdd15ee20231b840089e8aed2ae76",
        "to": "0x12b067d6755340bd03fdfa370d73a84f7ad06c19",
        "gas": "0xbb22",
        "value": "0x0",
        "input": "0x40c10f1900000000000000000000000029f4d70a6f8fdd15ee20231b840089e8aed2ae7600000000000000000000000000000000000000000000003b09fb2d7309704366",
        "nonce": "0x4e",
        "chainId": "0xaa36a7"
      },
      "additionalContracts": [],
      "isFixedGasLimit": false
    },
    {
      "hash": "0x52256d6fabdf1676e72a406ba9f0411af3b751f7385cdbf7599696f9922e489d",
      "transactionType": "CALL",
      "contractName": null,
      "contractAddress": "0x53f646df4442a1caca581078ca63076d882640a4",
      "function": "mint(address,uint256)",
      "arguments": [
        "0x29F4D70A6F8Fdd15Ee20231B840089e8AED2aE76",
        "920052503395531176060"
      ],
      "transaction": {
        "from": "0x29f4d70a6f8fdd15ee20231b840089e8aed2ae76",
        "to": "0x53f646df4442a1caca581078ca63076d882640a4",
        "gas": "0xbb22",
        "value": "0x0",
        "input": "0x40c10f1900000000000000000000000029f4d70a6f8fdd15ee20231b840089e8aed2ae76000000000000000000000000000000000000000000000031e04b1d30ef83387c",
        "nonce": "0x4f",
        "chainId": "0xaa36a7"
      },
      "additionalContracts": [],
      "isFixedGasLimit": false
    },
    {
      "hash": "0xeb8a77d454ccba1c61b02e5fefe62184c56f0cd944163c4aa8383ba77696a111",
      "transactionType": "CALL",
      "contractName": null,
      "contractAddress": "0x12b067d6755340bd03fdfa370d73a84f7ad06c19",
      "function": "approve(address,uint256)",
      "arguments": [
        "0x000000000022D473030F116dDEE9F6B43aC78BA3",
        "115792089237316195423570985008687907853269984665640564039457584007913129639935"
      ],
      "transaction": {
        "from": "0x29f4d70a6f8fdd15ee20231b840089e8aed2ae76",
        "to": "0x12b067d6755340bd03fdfa370d73a84f7ad06c19",
        "gas": "0xa13d",
        "value": "0x0",
        "input": "0x095ea7b3000000000000000000000000000000000022d473030f116ddee9f6b43ac78ba3ffffffffffffffffffffffffffffffffffffffffffffffffffffffffffffffff",
        "nonce": "0x50",
        "chainId": "0xaa36a7"
      },
      "additionalContracts": [],
      "isFixedGasLimit": false
    },
    {
      "hash": "0xbbb422214991090deb57f42cc50f8727d779a0182f98053e930df1ef52c3b8e4",
      "transactionType": "CALL",
      "contractName": null,
      "contractAddress": "0x53f646df4442a1caca581078ca63076d882640a4",
      "function": "approve(address,uint256)",
      "arguments": [
        "0x000000000022D473030F116dDEE9F6B43aC78BA3",
        "115792089237316195423570985008687907853269984665640564039457584007913129639935"
      ],
      "transaction": {
        "from": "0x29f4d70a6f8fdd15ee20231b840089e8aed2ae76",
        "to": "0x53f646df4442a1caca581078ca63076d882640a4",
        "gas": "0x9222",
        "value": "0x0",
        "input": "0x095ea7b3000000000000000000000000000000000022d473030f116ddee9f6b43ac78ba3ffffffffffffffffffffffffffffffffffffffffffffffffffffffffffffffff",
        "nonce": "0x51",
        "chainId": "0xaa36a7"
      },
      "additionalContracts": [],
      "isFixedGasLimit": false
    },
    {
      "hash": "0xf9de7c8b1870260e2f5adede91c70c35172a57d633c577582e828a1fecd13e95",
      "transactionType": "CALL",
      "contractName": null,
      "contractAddress": "0x000000000022d473030f116ddee9f6b43ac78ba3",
      "function": "approve(address,address,uint160,uint48)",
      "arguments": [
        "0x12b067D6755340bd03fdFA370D73A84f7Ad06c19",
        "0x429ba70129df741B2Ca2a85BC3A2a3328e5c09b4",
        "1461501637330902918203684832716283019655932542975",
        "281474976710655"
      ],
      "transaction": {
        "from": "0x29f4d70a6f8fdd15ee20231b840089e8aed2ae76",
        "to": "0x000000000022d473030f116ddee9f6b43ac78ba3",
        "gas": "0x96a0",
        "value": "0x0",
        "input": "0x87517c4500000000000000000000000012b067d6755340bd03fdfa370d73a84f7ad06c19000000000000000000000000429ba70129df741b2ca2a85bc3a2a3328e5c09b4000000000000000000000000ffffffffffffffffffffffffffffffffffffffff0000000000000000000000000000000000000000000000000000ffffffffffff",
        "nonce": "0x52",
        "chainId": "0xaa36a7"
      },
      "additionalContracts": [],
      "isFixedGasLimit": false
    },
    {
      "hash": "0x6238141e7b96d585c6477ec06b3496b6e6b2f1c8f5952dff380f139963f833a8",
      "transactionType": "CALL",
      "contractName": null,
      "contractAddress": "0x000000000022d473030f116ddee9f6b43ac78ba3",
      "function": "approve(address,address,uint160,uint48)",
      "arguments": [
        "0x53f646Df4442A1Caca581078Ca63076D882640A4",
        "0x429ba70129df741B2Ca2a85BC3A2a3328e5c09b4",
        "1461501637330902918203684832716283019655932542975",
        "281474976710655"
      ],
      "transaction": {
        "from": "0x29f4d70a6f8fdd15ee20231b840089e8aed2ae76",
        "to": "0x000000000022d473030f116ddee9f6b43ac78ba3",
        "gas": "0x96a0",
        "value": "0x0",
        "input": "0x87517c4500000000000000000000000053f646df4442a1caca581078ca63076d882640a4000000000000000000000000429ba70129df741b2ca2a85bc3a2a3328e5c09b4000000000000000000000000ffffffffffffffffffffffffffffffffffffffff0000000000000000000000000000000000000000000000000000ffffffffffff",
        "nonce": "0x53",
        "chainId": "0xaa36a7"
      },
      "additionalContracts": [],
      "isFixedGasLimit": false
    },
    {
      "hash": "0x631f2a8f2ff103b75a0238d90d15ce5bcde31ed0365c0471a8f757f9fb01c777",
      "transactionType": "CALL",
      "contractName": null,
      "contractAddress": "0x429ba70129df741b2ca2a85bc3a2a3328e5c09b4",
      "function": "modifyLiquidities(bytes,uint256)",
      "arguments": [
        "0x000000000000000000000000000000000000000000000000000000000000004000000000000000000000000000000000000000000000000000000000000000800000000000000000000000000000000000000000000000000000000000000004020d14140000000000000000000000000000000000000000000000000000000000000000000000000000000000000000000000000000000000000000000000040000000000000000000000000000000000000000000000000000000000000080000000000000000000000000000000000000000000000000000000000000024000000000000000000000000000000000000000000000000000000000000002a0000000000000000000000000000000000000000000000000000000000000030000000000000000000000000000000000000000000000000000000000000001a000000000000000000000000012b067d6755340bd03fdfa370d73a84f7ad06c1900000000000000000000000053f646df4442a1caca581078ca63076d882640a40000000000000000000000000000000000000000000000000000000000800000000000000000000000000000000000000000000000000000000000000000003c0000000000000000000000009c981cdc56335664f21448ca4f40c54390b7d0c0fffffffffffffffffffffffffffffffffffffffffffffffffffffffffff2764c00000000000000000000000000000000000000000000000000000000000d89b400000000000000000000000000000000000000000000003635c9adc5dea0000000000000000000000000000000000000000000000000003afc1a76bf620c4367000000000000000000000000000000000000000000000031d26a667d481f387d00000000000000000000000029f4d70a6f8fdd15ee20231b840089e8aed2ae7600000000000000000000000000000000000000000000000000000000000001800000000000000000000000000000000000000000000000000000000000000000000000000000000000000000000000000000000000000000000000000000004000000000000000000000000012b067d6755340bd03fdfa370d73a84f7ad06c1900000000000000000000000053f646df4442a1caca581078ca63076d882640a4000000000000000000000000000000000000000000000000000000000000004000000000000000000000000012b067d6755340bd03fdfa370d73a84f7ad06c1900000000000000000000000029f4d70a6f8fdd15ee20231b840089e8aed2ae76000000000000000000000000000000000000000000000000000000000000004000000000000000000000000053f646df4442a1caca581078ca63076d882640a400000000000000000000000029f4d70a6f8fdd15ee20231b840089e8aed2ae76",
        "1770034368"
      ],
      "transaction": {
        "from": "0x29f4d70a6f8fdd15ee20231b840089e8aed2ae76",
        "to": "0x429ba70129df741b2ca2a85bc3a2a3328e5c09b4",
        "gas": "0x5e830",
        "value": "0x0",
        "input": "0xdd46508f000000000000000000000000000000000000000000000000000000000000004000000000000000000000000000000000000000000000000000000000698094c00000000000000000000000000000000000000000000000000000000000000400000000000000000000000000000000000000000000000000000000000000004000000000000000000000000000000000000000000000000000000000000000800000000000000000000000000000000000000000000000000000000000000004020d14140000000000000000000000000000000000000000000000000000000000000000000000000000000000000000000000000000000000000000000000040000000000000000000000000000000000000000000000000000000000000080000000000000000000000000000000000000000000000000000000000000024000000000000000000000000000000000000000000000000000000000000002a0000000000000000000000000000000000000000000000000000000000000030000000000000000000000000000000000000000000000000000000000000001a000000000000000000000000012b067d6755340bd03fdfa370d73a84f7ad06c1900000000000000000000000053f646df4442a1caca581078ca63076d882640a40000000000000000000000000000000000000000000000000000000000800000000000000000000000000000000000000000000000000000000000000000003c0000000000000000000000009c981cdc56335664f21448ca4f40c54390b7d0c0fffffffffffffffffffffffffffffffffffffffffffffffffffffffffff2764c00000000000000000000000000000000000000000000000000000000000d89b400000000000000000000000000000000000000000000003635c9adc5dea0000000000000000000000000000000000000000000000000003afc1a76bf620c4367000000000000000000000000000000000000000000000031d26a667d481f387d00000000000000000000000029f4d70a6f8fdd15ee20231b840089e8aed2ae7600000000000000000000000000000000000000000000000000000000000001800000000000000000000000000000000000000000000000000000000000000000000000000000000000000000000000000000000000000000000000000000004000000000000000000000000012b067d6755340bd03fdfa370d73a84f7ad06c1900000000000000000000000053f646df4442a1caca581078ca63076d882640a4000000000000000000000000000000000000000000000000000000000000004000000000000000000000000012b067d6755340bd03fdfa370d73a84f7ad06c1900000000000000000000000029f4d70a6f8fdd15ee20231b840089e8aed2ae76000000000000000000000000000000000000000000000000000000000000004000000000000000000000000053f646df4442a1caca581078ca63076d882640a400000000000000000000000029f4d70a6f8fdd15ee20231b840089e8aed2ae76",
        "nonce": "0x54",
        "chainId": "0xaa36a7"
      },
      "additionalContracts": [],
      "isFixedGasLimit": false
    }
  ],
  "receipts": [
    {
      "status": "0x1",
      "cumulativeGasUsed": "0x80440d",
      "logs": [
        {
          "address": "0x12b067d6755340bd03fdfa370d73a84f7ad06c19",
          "topics": [
            "0xddf252ad1be2c89b69c2b068fc378daa952ba7f163c4a11628f55a4df523b3ef",
            "0x0000000000000000000000000000000000000000000000000000000000000000",
            "0x00000000000000000000000029f4d70a6f8fdd15ee20231b840089e8aed2ae76"
          ],
          "data": "0x00000000000000000000000000000000000000000000003b09fb2d7309704366",
          "blockHash": "0x2825b6bb6dc34f1b636a1cf8f4487d78390db5dda3c44576592c8b1ce1e0c84c",
          "blockNumber": "0x9b441f",
          "blockTimestamp": "0x698086c8",
          "transactionHash": "0xbbb422214991090deb57f42cc50f8727d779a0182f98053e930df1ef52c3b8e4",
          "transactionIndex": "0x50",
          "logIndex": "0x65",
          "removed": false
        }
      ],
      "logsBloom": "0x00000010000000000000000000000000200000000000000000000000000000000000000000000000000000000000000000000000000000000000000000000000000000000000000000000008000000000000000000000000000000000000000000000000020000000000000000000800000000000000000000000010000000000000000000000000000000000000000000000000000000000000000000000000000000000000000000000000000000000004000000000001000000000010000000000002000000000000000000000000000000000000000000000000000020000000000000000000000000100000000000000000000000000000000000000000",
      "type": "0x2",
      "transactionHash": "0xbbb422214991090deb57f42cc50f8727d779a0182f98053e930df1ef52c3b8e4",
      "transactionIndex": "0x50",
      "blockHash": "0x2825b6bb6dc34f1b636a1cf8f4487d78390db5dda3c44576592c8b1ce1e0c84c",
      "blockNumber": "0x9b441f",
      "gasUsed": "0x877c",
      "effectiveGasPrice": "0x3e0c4345",
      "from": "0x29f4d70a6f8fdd15ee20231b840089e8aed2ae76",
      "to": "0x12b067d6755340bd03fdfa370d73a84f7ad06c19",
      "contractAddress": null
    },
    {
      "status": "0x1",
      "cumulativeGasUsed": "0x80cb89",
      "logs": [
        {
          "address": "0x53f646df4442a1caca581078ca63076d882640a4",
          "topics": [
            "0xddf252ad1be2c89b69c2b068fc378daa952ba7f163c4a11628f55a4df523b3ef",
            "0x0000000000000000000000000000000000000000000000000000000000000000",
            "0x00000000000000000000000029f4d70a6f8fdd15ee20231b840089e8aed2ae76"
          ],
          "data": "0x000000000000000000000000000000000000000000000031e04b1d30ef83387c",
          "blockHash": "0x2825b6bb6dc34f1b636a1cf8f4487d78390db5dda3c44576592c8b1ce1e0c84c",
          "blockNumber": "0x9b441f",
          "blockTimestamp": "0x698086c8",
          "transactionHash": "0x6238141e7b96d585c6477ec06b3496b6e6b2f1c8f5952dff380f139963f833a8",
          "transactionIndex": "0x51",
          "logIndex": "0x66",
          "removed": false
        }
      ],
      "logsBloom": "0x00000010000000000000200000000000000000000000000000000000000000000000000000000000000000000000000000000000000000000000000000000000000000000000000000000008000000100000000000000000000000000000000000000000020000000000000000000800000000000000000000000010000000000000000000000000000000000000000000000000000000000000000000000000000000000000000000000000000000000000000000000001000000000010000000000002000000000000000000000000000000001000000000000000000020000000000000000000000000000000000000000000000000000000000000000000",
      "type": "0x2",
      "transactionHash": "0x6238141e7b96d585c6477ec06b3496b6e6b2f1c8f5952dff380f139963f833a8",
      "transactionIndex": "0x51",
      "blockHash": "0x2825b6bb6dc34f1b636a1cf8f4487d78390db5dda3c44576592c8b1ce1e0c84c",
      "blockNumber": "0x9b441f",
      "gasUsed": "0x877c",
      "effectiveGasPrice": "0x3e0c4345",
      "from": "0x29f4d70a6f8fdd15ee20231b840089e8aed2ae76",
      "to": "0x53f646df4442a1caca581078ca63076d882640a4",
      "contractAddress": null
    },
    {
      "status": "0x1",
      "cumulativeGasUsed": "0x814046",
      "logs": [
        {
          "address": "0x12b067d6755340bd03fdfa370d73a84f7ad06c19",
          "topics": [
            "0x8c5be1e5ebec7d5bd14f71427d1e84f3dd0314c0f7b2291e5b200ac8c7c3b925",
            "0x00000000000000000000000029f4d70a6f8fdd15ee20231b840089e8aed2ae76",
            "0x000000000000000000000000000000000022d473030f116ddee9f6b43ac78ba3"
          ],
          "data": "0xffffffffffffffffffffffffffffffffffffffffffffffffffffffffffffffff",
          "blockHash": "0x2825b6bb6dc34f1b636a1cf8f4487d78390db5dda3c44576592c8b1ce1e0c84c",
          "blockNumber": "0x9b441f",
          "blockTimestamp": "0x698086c8",
          "transactionHash": "0x52256d6fabdf1676e72a406ba9f0411af3b751f7385cdbf7599696f9922e489d",
          "transactionIndex": "0x52",
          "logIndex": "0x67",
          "removed": false
        }
      ],
      "logsBloom": "0x00000010000000000000000000000000200000000000000000000000000000000000000000000000000000000000000000000000800000000000000000200000000000000000000000004000000000000000000000000800000000000000000000000000000000000000000000000000000000000000000000000000000000000000000000000000000000000000000000000000000000000000000000000000020000000000000000000000000000000004000000000001000000000010000000000000000000000000000000000000000000000000000000000000000000000010000000000000000000100000000000000000000000000000000000000000",
      "type": "0x2",
      "transactionHash": "0x52256d6fabdf1676e72a406ba9f0411af3b751f7385cdbf7599696f9922e489d",
      "transactionIndex": "0x52",
      "blockHash": "0x2825b6bb6dc34f1b636a1cf8f4487d78390db5dda3c44576592c8b1ce1e0c84c",
      "blockNumber": "0x9b441f",
      "gasUsed": "0x74bd",
      "effectiveGasPrice": "0x3e0c4345",
      "from": "0x29f4d70a6f8fdd15ee20231b840089e8aed2ae76",
      "to": "0x12b067d6755340bd03fdfa370d73a84f7ad06c19",
      "contractAddress": null
    },
    {
      "status": "0x1",
      "cumulativeGasUsed": "0x81aa13",
      "logs": [
        {
          "address": "0x53f646df4442a1caca581078ca63076d882640a4",
          "topics": [
            "0x8c5be1e5ebec7d5bd14f71427d1e84f3dd0314c0f7b2291e5b200ac8c7c3b925",
            "0x00000000000000000000000029f4d70a6f8fdd15ee20231b840089e8aed2ae76",
            "0x000000000000000000000000000000000022d473030f116ddee9f6b43ac78ba3"
          ],
          "data": "0xffffffffffffffffffffffffffffffffffffffffffffffffffffffffffffffff",
          "blockHash": "0x2825b6bb6dc34f1b636a1cf8f4487d78390db5dda3c44576592c8b1ce1e0c84c",
          "blockNumber": "0x9b441f",
          "blockTimestamp": "0x698086c8",
          "transactionHash": "0x631f2a8f2ff103b75a0238d90d15ce5bcde31ed0365c0471a8f757f9fb01c777",
          "transactionIndex": "0x53",
          "logIndex": "0x68",
          "removed": false
        }
      ],
      "logsBloom": "0x00000010000000000000200000000000000000000000000000000000000000000000000000000000000000000000000000000000800000000000000000200000000000000000000000004000000000100000000000000800000000000000000000000000000000000000000000000000000000000000000000000000000000000000000000000000000000000000000000000000000000000000000000000000020000000000000000000000000000000000000000000001000000000010000000000000000000000000000000000000000000001000000000000000000000000010000000000000000000000000000000000000000000000000000000000000",
      "type": "0x2",
      "transactionHash": "0x631f2a8f2ff103b75a0238d90d15ce5bcde31ed0365c0471a8f757f9fb01c777",
      "transactionIndex": "0x53",
      "blockHash": "0x2825b6bb6dc34f1b636a1cf8f4487d78390db5dda3c44576592c8b1ce1e0c84c",
      "blockNumber": "0x9b441f",
      "gasUsed": "0x69cd",
      "effectiveGasPrice": "0x3e0c4345",
      "from": "0x29f4d70a6f8fdd15ee20231b840089e8aed2ae76",
      "to": "0x53f646df4442a1caca581078ca63076d882640a4",
      "contractAddress": null
    },
    {
      "status": "0x1",
      "cumulativeGasUsed": "0x821721",
      "logs": [
        {
          "address": "0x000000000022d473030f116ddee9f6b43ac78ba3",
          "topics": [
            "0xda9fa7c1b00402c17d0161b249b1ab8bbec047c5a52207b9c112deffd817036b",
            "0x00000000000000000000000029f4d70a6f8fdd15ee20231b840089e8aed2ae76",
            "0x00000000000000000000000012b067d6755340bd03fdfa370d73a84f7ad06c19",
            "0x000000000000000000000000429ba70129df741b2ca2a85bc3a2a3328e5c09b4"
          ],
          "data": "0x000000000000000000000000ffffffffffffffffffffffffffffffffffffffff0000000000000000000000000000000000000000000000000000ffffffffffff",
          "blockHash": "0x2825b6bb6dc34f1b636a1cf8f4487d78390db5dda3c44576592c8b1ce1e0c84c",
          "blockNumber": "0x9b441f",
          "blockTimestamp": "0x698086c8",
          "transactionHash": "0xf9de7c8b1870260e2f5adede91c70c35172a57d633c577582e828a1fecd13e95",
          "transactionIndex": "0x54",
          "logIndex": "0x69",
          "removed": false
        }
      ],
      "logsBloom": "0x00010010000000000000000000000000000000000000000000000000000000000000000000000040080000000000000000000000000000000000000000080000000000000000000000000000000000000000000000000000000000000000000000000000000000000000000000000000000000000000000000000800000000000020000000000000000000000000000000000000000000000000000000000000000000000000000000000000000000000000000000000001000000080010000000000000000000000000000100000000000000000000000040000000000000000004000000000000000000000000000000000080000000000000000000000400",
      "type": "0x2",
      "transactionHash": "0xf9de7c8b1870260e2f5adede91c70c35172a57d633c577582e828a1fecd13e95",
      "transactionIndex": "0x54",
      "blockHash": "0x2825b6bb6dc34f1b636a1cf8f4487d78390db5dda3c44576592c8b1ce1e0c84c",
      "blockNumber": "0x9b441f",
      "gasUsed": "0x6d0e",
      "effectiveGasPrice": "0x3e0c4345",
      "from": "0x29f4d70a6f8fdd15ee20231b840089e8aed2ae76",
      "to": "0x000000000022d473030f116ddee9f6b43ac78ba3",
      "contractAddress": null
    },
    {
      "status": "0x1",
      "cumulativeGasUsed": "0x82842f",
      "logs": [
        {
          "address": "0x000000000022d473030f116ddee9f6b43ac78ba3",
          "topics": [
            "0xda9fa7c1b00402c17d0161b249b1ab8bbec047c5a52207b9c112deffd817036b",
            "0x00000000000000000000000029f4d70a6f8fdd15ee20231b840089e8aed2ae76",
            "0x00000000000000000000000053f646df4442a1caca581078ca63076d882640a4",
            "0x000000000000000000000000429ba70129df741b2ca2a85bc3a2a3328e5c09b4"
          ],
          "data": "0x000000000000000000000000ffffffffffffffffffffffffffffffffffffffff0000000000000000000000000000000000000000000000000000ffffffffffff",
          "blockHash": "0x2825b6bb6dc34f1b636a1cf8f4487d78390db5dda3c44576592c8b1ce1e0c84c",
          "blockNumber": "0x9b441f",
          "blockTimestamp": "0x698086c8",
          "transactionHash": "0xf64420632a668595d13a3bc7e0e6e6bc3df633c7ad730cee5bef3ec55c59efbb",
          "transactionIndex": "0x55",
          "logIndex": "0x6a",
          "removed": false
        }
      ],
      "logsBloom": "0x00010210000000000000000000000000000000000000000000000000000000000000000000000040080000000000000000000000000000000000000000080000000000000000000000000000000000000000000000000000000000000000000000000000000000000000000000000000000000000000000000000800000000000020000000000000000000000000000000000000000000000000000000000000000000000000000000000000000000800000000000000001000000080010000000000000000000000000000000000000000000000000000040000000000000000000000000000000000000000000000000000000400000000000000000000400",
      "type": "0x2",
      "transactionHash": "0xf64420632a668595d13a3bc7e0e6e6bc3df633c7ad730cee5bef3ec55c59efbb",
      "transactionIndex": "0x55",
      "blockHash": "0x2825b6bb6dc34f1b636a1cf8f4487d78390db5dda3c44576592c8b1ce1e0c84c",
      "blockNumber": "0x9b441f",
      "gasUsed": "0x6d0e",
      "effectiveGasPrice": "0x3e0c4345",
      "from": "0x29f4d70a6f8fdd15ee20231b840089e8aed2ae76",
      "to": "0x000000000022d473030f116ddee9f6b43ac78ba3",
      "contractAddress": null
    },
    {
      "status": "0x1",
      "cumulativeGasUsed": "0x86cafc",
      "logs": [
        {
          "address": "0x429ba70129df741b2ca2a85bc3a2a3328e5c09b4",
          "topics": [
            "0xddf252ad1be2c89b69c2b068fc378daa952ba7f163c4a11628f55a4df523b3ef",
            "0x0000000000000000000000000000000000000000000000000000000000000000",
            "0x00000000000000000000000029f4d70a6f8fdd15ee20231b840089e8aed2ae76",
            "0x0000000000000000000000000000000000000000000000000000000000005909"
          ],
          "data": "0x",
          "blockHash": "0x2825b6bb6dc34f1b636a1cf8f4487d78390db5dda3c44576592c8b1ce1e0c84c",
          "blockNumber": "0x9b441f",
          "blockTimestamp": "0x698086c8",
          "transactionHash": "0xeb8a77d454ccba1c61b02e5fefe62184c56f0cd944163c4aa8383ba77696a111",
          "transactionIndex": "0x56",
          "logIndex": "0x6b",
          "removed": false
        },
        {
          "address": "0xe03a1074c86cfedd5c142c4f04f1a1536e203543",
          "topics": [
            "0xf208f4912782fd25c7f114ca3723a2d5dd6f3bcc3ac8db5af63baa85f711d5ec",
            "0x244a813e4231897b688102fb2d5d00286ac0488eaa0fc02e4dd414c198413abc",
            "0x000000000000000000000000429ba70129df741b2ca2a85bc3a2a3328e5c09b4"
          ],
          "data": "0xfffffffffffffffffffffffffffffffffffffffffffffffffffffffffff2764c00000000000000000000000000000000000000000000000000000000000d89b400000000000000000000000000000000000000000000003635c9adc5dea000000000000000000000000000000000000000000000000000000000000000005909",
          "blockHash": "0x2825b6bb6dc34f1b636a1cf8f4487d78390db5dda3c44576592c8b1ce1e0c84c",
          "blockNumber": "0x9b441f",
          "blockTimestamp": "0x698086c8",
          "transactionHash": "0xeb8a77d454ccba1c61b02e5fefe62184c56f0cd944163c4aa8383ba77696a111",
          "transactionIndex": "0x56",
          "logIndex": "0x6c",
          "removed": false
        },
        {
          "address": "0x12b067d6755340bd03fdfa370d73a84f7ad06c19",
          "topics": [
            "0xddf252ad1be2c89b69c2b068fc378daa952ba7f163c4a11628f55a4df523b3ef",
            "0x00000000000000000000000029f4d70a6f8fdd15ee20231b840089e8aed2ae76",
            "0x000000000000000000000000e03a1074c86cfedd5c142c4f04f1a1536e203543"
          ],
          "data": "0x00000000000000000000000000000000000000000000003afc1a76bf620c4367",
          "blockHash": "0x2825b6bb6dc34f1b636a1cf8f4487d78390db5dda3c44576592c8b1ce1e0c84c",
          "blockNumber": "0x9b441f",
          "blockTimestamp": "0x698086c8",
          "transactionHash": "0xeb8a77d454ccba1c61b02e5fefe62184c56f0cd944163c4aa8383ba77696a111",
          "transactionIndex": "0x56",
          "logIndex": "0x6d",
          "removed": false
        },
        {
          "address": "0x53f646df4442a1caca581078ca63076d882640a4",
          "topics": [
            "0xddf252ad1be2c89b69c2b068fc378daa952ba7f163c4a11628f55a4df523b3ef",
            "0x00000000000000000000000029f4d70a6f8fdd15ee20231b840089e8aed2ae76",
            "0x000000000000000000000000e03a1074c86cfedd5c142c4f04f1a1536e203543"
          ],
          "data": "0x000000000000000000000000000000000000000000000031d26a667d481f387d",
          "blockHash": "0x2825b6bb6dc34f1b636a1cf8f4487d78390db5dda3c44576592c8b1ce1e0c84c",
          "blockNumber": "0x9b441f",
          "blockTimestamp": "0x698086c8",
          "transactionHash": "0xeb8a77d454ccba1c61b02e5fefe62184c56f0cd944163c4aa8383ba77696a111",
          "transactionIndex": "0x56",
          "logIndex": "0x6e",
          "removed": false
        }
      ],
      "logsBloom": "0x00000010000000000000201000000000200000000000000000000000080000000000000000000040080000000000000000000100000000000000000000000000000000000000000000000008000000100000000000000000000000000000000000000000020000000000000080000800400100000000100000000810000084000000000001000000000010000000000000000000000000000000000000000000000004010000000000000000000000000004000000400001000000000010000000000002000000000000000000000000000000001000000000001000000020001000000000000000000000100000000004000000000000000000000000000000",
      "type": "0x2",
      "transactionHash": "0xeb8a77d454ccba1c61b02e5fefe62184c56f0cd944163c4aa8383ba77696a111",
      "transactionIndex": "0x56",
      "blockHash": "0x2825b6bb6dc34f1b636a1cf8f4487d78390db5dda3c44576592c8b1ce1e0c84c",
      "blockNumber": "0x9b441f",
      "gasUsed": "0x446cd",
      "effectiveGasPrice": "0x3e0c4345",
      "from": "0x29f4d70a6f8fdd15ee20231b840089e8aed2ae76",
      "to": "0x429ba70129df741b2ca2a85bc3a2a3328e5c09b4",
      "contractAddress": null
    }
  ],
  "libraries": [],
  "pending": [],
  "returns": {},
  "timestamp": 1770030794037,
  "chain": 11155111,
  "commit": "6769499"
}