{
  "transactions": [
    {
      "hash": "0x005c4a2c713ae856e78ed4f23a602819908c47dd8d6176e9287aafaad8a16d79",
      "transactionType": "CALL",
      "contractName": null,
      "contractAddress": "0x53f646df4442a1caca581078ca63076d882640a4",
      "function": "approve(address,uint256)",
      "arguments": [
        "0x000000000022D473030F116dDEE9F6B43aC78BA3",
        "115792089237316195423570985008687907853269984665640564039457584007913129639935"
      ],
      "transaction": {
        "from": "0x29f4d70a6f8fdd15ee20231b840089e8aed2ae76",
        "to": "0x53f646df4442a1caca581078ca63076d882640a4",
        "gas": "0x9222",
        "value": "0x0",
        "input": "0x095ea7b3000000000000000000000000000000000022d473030f116ddee9f6b43ac78ba3ffffffffffffffffffffffffffffffffffffffffffffffffffffffffffffffff",
        "nonce": "0x2d",
        "chainId": "0xaa36a7"
      },
      "additionalContracts": [],
      "isFixedGasLimit": false
    },
    {
      "hash": "0xe87714ef4580f2592516352276ba438ca86ba67a0f28bf9c74b319b13ff68d08",
      "transactionType": "CALL",
      "contractName": null,
      "contractAddress": "0x0b2b7b0fa0ad02d6a2bbe5d93cae06045f849c8a",
      "function": "approve(address,uint256)",
      "arguments": [
        "0x000000000022D473030F116dDEE9F6B43aC78BA3",
        "115792089237316195423570985008687907853269984665640564039457584007913129639935"
      ],
      "transaction": {
        "from": "0x29f4d70a6f8fdd15ee20231b840089e8aed2ae76",
        "to": "0x0b2b7b0fa0ad02d6a2bbe5d93cae06045f849c8a",
        "gas": "0x9222",
        "value": "0x0",
        "input": "0x095ea7b3000000000000000000000000000000000022d473030f116ddee9f6b43ac78ba3ffffffffffffffffffffffffffffffffffffffffffffffffffffffffffffffff",
        "nonce": "0x2e",
        "chainId": "0xaa36a7"
      },
      "additionalContracts": [],
      "isFixedGasLimit": false
    },
    {
      "hash": "0x8125f5fd17c43ccb838214e7ba4a974823cd0fb281847c59d7e9143923e69e9d",
      "transactionType": "CALL",
      "contractName": null,
      "contractAddress": "0x12b067d6755340bd03fdfa370d73a84f7ad06c19",
      "function": "approve(address,uint256)",
      "arguments": [
        "0x000000000022D473030F116dDEE9F6B43aC78BA3",
        "115792089237316195423570985008687907853269984665640564039457584007913129639935"
      ],
      "transaction": {
        "from": "0x29f4d70a6f8fdd15ee20231b840089e8aed2ae76",
        "to": "0x12b067d6755340bd03fdfa370d73a84f7ad06c19",
        "gas": "0x9222",
        "value": "0x0",
        "input": "0x095ea7b3000000000000000000000000000000000022d473030f116ddee9f6b43ac78ba3ffffffffffffffffffffffffffffffffffffffffffffffffffffffffffffffff",
        "nonce": "0x2f",
        "chainId": "0xaa36a7"
      },
      "additionalContracts": [],
      "isFixedGasLimit": false
    },
    {
      "hash": "0x27e99613264114b7baf4778b403649e9e4e990f25a804915cc6d92a668989494",
      "transactionType": "CALL",
      "contractName": null,
      "contractAddress": "0x000000000022d473030f116ddee9f6b43ac78ba3",
      "function": "approve(address,address,uint160,uint48)",
      "arguments": [
        "0x53f646Df4442A1Caca581078Ca63076D882640A4",
        "0xf13D190e9117920c703d79B5F33732e10049b115",
        "1461501637330902918203684832716283019655932542975",
        "281474976710655"
      ],
      "transaction": {
        "from": "0x29f4d70a6f8fdd15ee20231b840089e8aed2ae76",
        "to": "0x000000000022d473030f116ddee9f6b43ac78ba3",
        "gas": "0x101ee",
        "value": "0x0",
        "input": "0x87517c4500000000000000000000000053f646df4442a1caca581078ca63076d882640a4000000000000000000000000f13d190e9117920c703d79b5f33732e10049b115000000000000000000000000ffffffffffffffffffffffffffffffffffffffff0000000000000000000000000000000000000000000000000000ffffffffffff",
        "nonce": "0x30",
        "chainId": "0xaa36a7"
      },
      "additionalContracts": [],
      "isFixedGasLimit": false
    },
    {
      "hash": "0x26555022f88958c4543ff55edc7702f2b3c68eb9464c28465ec2c493d3467178",
      "transactionType": "CALL",
      "contractName": null,
      "contractAddress": "0x000000000022d473030f116ddee9f6b43ac78ba3",
      "function": "approve(address,address,uint160,uint48)",
      "arguments": [
        "0x0B2B7b0fa0ad02D6A2bbE5d93cAE06045f849C8A",
        "0xf13D190e9117920c703d79B5F33732e10049b115",
        "1461501637330902918203684832716283019655932542975",
        "281474976710655"
      ],
      "transaction": {
        "from": "0x29f4d70a6f8fdd15ee20231b840089e8aed2ae76",
        "to": "0x000000000022d473030f116ddee9f6b43ac78ba3",
        "gas": "0x101ee",
        "value": "0x0",
        "input": "0x87517c450000000000000000000000000b2b7b0fa0ad02d6a2bbe5d93cae06045f849c8a000000000000000000000000f13d190e9117920c703d79b5f33732e10049b115000000000000000000000000ffffffffffffffffffffffffffffffffffffffff0000000000000000000000000000000000000000000000000000ffffffffffff",
        "nonce": "0x31",
        "chainId": "0xaa36a7"
      },
      "additionalContracts": [],
      "isFixedGasLimit": false
    },
    {
      "hash": "0x45801cab9685be5cbb846674e21a56d1061dd6a178790e50c7435cbc4157c569",
      "transactionType": "CALL",
      "contractName": null,
      "contractAddress": "0x000000000022d473030f116ddee9f6b43ac78ba3",
      "function": "approve(address,address,uint160,uint48)",
      "arguments": [
        "0x12b067D6755340bd03fdFA370D73A84f7Ad06c19",
        "0xf13D190e9117920c703d79B5F33732e10049b115",
        "1461501637330902918203684832716283019655932542975",
        "281474976710655"
      ],
      "transaction": {
        "from": "0x29f4d70a6f8fdd15ee20231b840089e8aed2ae76",
        "to": "0x000000000022d473030f116ddee9f6b43ac78ba3",
        "gas": "0x101ee",
        "value": "0x0",
        "input": "0x87517c4500000000000000000000000012b067d6755340bd03fdfa370d73a84f7ad06c19000000000000000000000000f13d190e9117920c703d79b5f33732e10049b115000000000000000000000000ffffffffffffffffffffffffffffffffffffffff0000000000000000000000000000000000000000000000000000ffffffffffff",
        "nonce": "0x32",
        "chainId": "0xaa36a7"
      },
      "additionalContracts": [],
      "isFixedGasLimit": false
    },
    {
      "hash": "0x0d2a8153416059c9a2f241d47cf440664a98453e52bf0945ee50af1bd37733b2",
      "transactionType": "CALL",
      "contractName": null,
      "contractAddress": "0x53f646df4442a1caca581078ca63076d882640a4",
      "function": "approve(address,uint256)",
      "arguments": [
        "0xf13D190e9117920c703d79B5F33732e10049b115",
        "115792089237316195423570985008687907853269984665640564039457584007913129639935"
      ],
      "transaction": {
        "from": "0x29f4d70a6f8fdd15ee20231b840089e8aed2ae76",
        "to": "0x53f646df4442a1caca581078ca63076d882640a4",
        "gas": "0x10cb1",
        "value": "0x0",
        "input": "0x095ea7b3000000000000000000000000f13d190e9117920c703d79b5f33732e10049b115ffffffffffffffffffffffffffffffffffffffffffffffffffffffffffffffff",
        "nonce": "0x33",
        "chainId": "0xaa36a7"
      },
      "additionalContracts": [],
      "isFixedGasLimit": false
    },
    {
      "hash": "0x3277f8ee6e78a0a81d0dc2d64619c7ba78aabb545260b9aac15dcb11c16e14e5",
      "transactionType": "CALL",
      "contractName": null,
      "contractAddress": "0x0b2b7b0fa0ad02d6a2bbe5d93cae06045f849c8a",
      "function": "approve(address,uint256)",
      "arguments": [
        "0xf13D190e9117920c703d79B5F33732e10049b115",
        "115792089237316195423570985008687907853269984665640564039457584007913129639935"
      ],
      "transaction": {
        "from": "0x29f4d70a6f8fdd15ee20231b840089e8aed2ae76",
        "to": "0x0b2b7b0fa0ad02d6a2bbe5d93cae06045f849c8a",
        "gas": "0x10cb1",
        "value": "0x0",
        "input": "0x095ea7b3000000000000000000000000f13d190e9117920c703d79b5f33732e10049b115ffffffffffffffffffffffffffffffffffffffffffffffffffffffffffffffff",
        "nonce": "0x34",
        "chainId": "0xaa36a7"
      },
      "additionalContracts": [],
      "isFixedGasLimit": false
    },
    {
      "hash": "0xc07a35813011bc57b5127d1311c4364e2808dcbc582d2d2b40f1ea99a785a008",
      "transactionType": "CALL",
      "contractName": null,
      "contractAddress": "0x12b067d6755340bd03fdfa370d73a84f7ad06c19",
      "function": "approve(address,uint256)",
      "arguments": [
        "0xf13D190e9117920c703d79B5F33732e10049b115",
        "115792089237316195423570985008687907853269984665640564039457584007913129639935"
      ],
      "transaction": {
        "from": "0x29f4d70a6f8fdd15ee20231b840089e8aed2ae76",
        "to": "0x12b067d6755340bd03fdfa370d73a84f7ad06c19",
        "gas": "0x10cb1",
        "value": "0x0",
        "input": "0x095ea7b3000000000000000000000000f13d190e9117920c703d79b5f33732e10049b115ffffffffffffffffffffffffffffffffffffffffffffffffffffffffffffffff",
        "nonce": "0x35",
        "chainId": "0xaa36a7"
      },
      "additionalContracts": [],
      "isFixedGasLimit": false
    },
    {
      "hash": "0xc234600a4e9c9b33c602fbd1330e1b5c075af0462eee230b19a719df57e303f3",
      "transactionType": "CALL",
      "contractName": null,
      "contractAddress": "0xf13d190e9117920c703d79b5f33732e10049b115",
      "function": "swapExactTokensForTokens(uint256,uint256,bool,(address,address,uint24,int24,address),bytes,address,uint256)",
      "arguments": [
        "10000000000000000",
        "0",
        "true",
        "(0x12b067D6755340bd03fdFA370D73A84f7Ad06c19, 0x53f646Df4442A1Caca581078Ca63076D882640A4, 8388608, 60, 0x9c981cdc56335664F21448cA4f40c54390B7D0C0)",
        "0x",
        "0x29F4D70A6F8Fdd15Ee20231B840089e8AED2aE76",
        "1770030996"
      ],
      "transaction": {
        "from": "0x29f4d70a6f8fdd15ee20231b840089e8aed2ae76",
        "to": "0xf13d190e9117920c703d79b5f33732e10049b115",
        "gas": "0x3e8bb",
        "value": "0x0",
        "input": "0xb1a0d571000000000000000000000000000000000000000000000000002386f26fc100000000000000000000000000000000000000000000000000000000000000000000000000000000000000000000000000000000000000000000000000000000000100000000000000000000000012b067d6755340bd03fdfa370d73a84f7ad06c1900000000000000000000000053f646df4442a1caca581078ca63076d882640a40000000000000000000000000000000000000000000000000000000000800000000000000000000000000000000000000000000000000000000000000000003c0000000000000000000000009c981cdc56335664f21448ca4f40c54390b7d0c0000000000000000000000000000000000000000000000000000000000000016000000000000000000000000029f4d70a6f8fdd15ee20231b840089e8aed2ae7600000000000000000000000000000000000000000000000000000000698087940000000000000000000000000000000000000000000000000000000000000000",
        "nonce": "0x36",
        "chainId": "0xaa36a7"
      },
      "additionalContracts": [],
      "isFixedGasLimit": false
    },
    {
      "hash": "0xaa0a8160fbb9378c445328377833027f08b316fe5cceedf2e2759587b0d714a8",
      "transactionType": "CALL",
      "contractName": null,
      "contractAddress": "0xf13d190e9117920c703d79b5f33732e10049b115",
      "function": "swapExactTokensForTokens(uint256,uint256,bool,(address,address,uint24,int24,address),bytes,address,uint256)",
      "arguments": [
        "500000000000000000",
        "0",
        "true",
        "(0x12b067D6755340bd03fdFA370D73A84f7Ad06c19, 0x53f646Df4442A1Caca581078Ca63076D882640A4, 8388608, 60, 0x9c981cdc56335664F21448cA4f40c54390B7D0C0)",
        "0x",
        "0x29F4D70A6F8Fdd15Ee20231B840089e8AED2aE76",
        "1770030996"
      ],
      "transaction": {
        "from": "0x29f4d70a6f8fdd15ee20231b840089e8aed2ae76",
        "to": "0xf13d190e9117920c703d79b5f33732e10049b115",
        "gas": "0x339f8",
        "value": "0x0",
        "input": "0xb1a0d57100000000000000000000000000000000000000000000000006f05b59d3b200000000000000000000000000000000000000000000000000000000000000000000000000000000000000000000000000000000000000000000000000000000000100000000000000000000000012b067d6755340bd03fdfa370d73a84f7ad06c1900000000000000000000000053f646df4442a1caca581078ca63076d882640a40000000000000000000000000000000000000000000000000000000000800000000000000000000000000000000000000000000000000000000000000000003c0000000000000000000000009c981cdc56335664f21448ca4f40c54390b7d0c0000000000000000000000000000000000000000000000000000000000000016000000000000000000000000029f4d70a6f8fdd15ee20231b840089e8aed2ae7600000000000000000000000000000000000000000000000000000000698087940000000000000000000000000000000000000000000000000000000000000000",
        "nonce": "0x37",
        "chainId": "0xaa36a7"
      },
      "additionalContracts": [],
      "isFixedGasLimit": false
    },
    {
      "hash": "0x64405ea7ca35ba2a4a75238fb673ca487ea81bbb94ec6c9fe8a2ecbe57c7793d",
      "transactionType": "CALL",
      "contractName": null,
      "contractAddress": "0xf13d190e9117920c703d79b5f33732e10049b115",
      "function": "swapExactTokensForTokens(uint256,uint256,bool,(address,address,uint24,int24,address),bytes,address,uint256)",
      "arguments": [
        "50000000000000000000",
        "0",
        "true",
        "(0x0B2B7b0fa0ad02D6A2bbE5d93cAE06045f849C8A, 0x53f646Df4442A1Caca581078Ca63076D882640A4, 3000, 60, 0x0000000000000000000000000000000000000000)",
        "0x",
        "0x29F4D70A6F8Fdd15Ee20231B840089e8AED2aE76",
        "1770030996"
      ],
      "transaction": {
        "from": "0x29f4d70a6f8fdd15ee20231b840089e8aed2ae76",
        "to": "0xf13d190e9117920c703d79b5f33732e10049b115",
        "gas": "0x2e24c",
        "value": "0x0",
        "input": "0xb1a0d571000000000000000000000000000000000000000000000002b5e3af16b1880000000000000000000000000000000000000000000000000000000000000000000000000000000000000000000000000000000000000000000000000000000000010000000000000000000000000b2b7b0fa0ad02d6a2bbe5d93cae06045f849c8a00000000000000000000000053f646df4442a1caca581078ca63076d882640a40000000000000000000000000000000000000000000000000000000000000bb8000000000000000000000000000000000000000000000000000000000000003c0000000000000000000000000000000000000000000000000000000000000000000000000000000000000000000000000000000000000000000000000000016000000000000000000000000029f4d70a6f8fdd15ee20231b840089e8aed2ae7600000000000000000000000000000000000000000000000000000000698087940000000000000000000000000000000000000000000000000000000000000000",
        "nonce": "0x38",
        "chainId": "0xaa36a7"
      },
      "additionalContracts": [],
      "isFixedGasLimit": false
    },
    {
      "hash": "0xaadb71708bbbfc7a5dce6cb8221e840ea62ac39d74f9dd7a3a9d90bf069d3e01",
      "transactionType": "CALL",
      "contractName": null,
      "contractAddress": "0xf13d190e9117920c703d79b5f33732e10049b115",
      "function": "swapExactTokensForTokens(uint256,uint256,bool,(address,address,uint24,int24,address),bytes,address,uint256)",
      "arguments": [
        "500000000000000000",
        "0",
        "true",
        "(0x12b067D6755340bd03fdFA370D73A84f7Ad06c19, 0x53f646Df4442A1Caca581078Ca63076D882640A4, 8388608, 60, 0x9c981cdc56335664F21448cA4f40c54390B7D0C0)",
        "0x",
        "0x29F4D70A6F8Fdd15Ee20231B840089e8AED2aE76",
        "1770030996"
      ],
      "transaction": {
        "from": "0x29f4d70a6f8fdd15ee20231b840089e8aed2ae76",
        "to": "0xf13d190e9117920c703d79b5f33732e10049b115",
        "gas": "0x3580e",
        "value": "0x0",
        "input": "0xb1a0d57100000000000000000000000000000000000000000000000006f05b59d3b200000000000000000000000000000000000000000000000000000000000000000000000000000000000000000000000000000000000000000000000000000000000100000000000000000000000012b067d6755340bd03fdfa370d73a84f7ad06c1900000000000000000000000053f646df4442a1caca581078ca63076d882640a40000000000000000000000000000000000000000000000000000000000800000000000000000000000000000000000000000000000000000000000000000003c0000000000000000000000009c981cdc56335664f21448ca4f40c54390b7d0c0000000000000000000000000000000000000000000000000000000000000016000000000000000000000000029f4d70a6f8fdd15ee20231b840089e8aed2ae7600000000000000000000000000000000000000000000000000000000698087940000000000000000000000000000000000000000000000000000000000000000",
        "nonce": "0x39",
        "chainId": "0xaa36a7"
      },
      "additionalContracts": [],
      "isFixedGasLimit": false
    }
  ],
  "receipts": [
    {
      "status": "0x1",
      "cumulativeGasUsed": "0x7615f0",
      "logs": [
        {
          "address": "0x53f646df4442a1caca581078ca63076d882640a4",
          "topics": [
            "0x8c5be1e5ebec7d5bd14f71427d1e84f3dd0314c0f7b2291e5b200ac8c7c3b925",
            "0x00000000000000000000000029f4d70a6f8fdd15ee20231b840089e8aed2ae76",
            "0x000000000000000000000000000000000022d473030f116ddee9f6b43ac78ba3"
          ],
          "data": "0xffffffffffffffffffffffffffffffffffffffffffffffffffffffffffffffff",
          "blockHash": "0xd7a69a02778dba9f5fe85a403112f387b398e47b5c7404dec4ddd22424b27b7f",
          "blockNumber": "0x9b4319",
          "blockTimestamp": "0x6980799c",
          "transactionHash": "0x005c4a2c713ae856e78ed4f23a602819908c47dd8d6176e9287aafaad8a16d79",
          "transactionIndex": "0x4b",
          "logIndex": "0x47",
          "removed": false
        }
      ],
      "logsBloom": "0x00000010000000000000200000000000000000000000000000000000000000000000000000000000000000000000000000000000800000000000000000200000000000000000000000004000000000100000000000000800000000000000000000000000000000000000000000000000000000000000000000000000000000000000000000000000000000000000000000000000000000000000000000000000020000000000000000000000000000000000000000000001000000000010000000000000000000000000000000000000000000001000000000000000000000000010000000000000000000000000000000000000000000000000000000000000",
      "type": "0x2",
      "transactionHash": "0x005c4a2c713ae856e78ed4f23a602819908c47dd8d6176e9287aafaad8a16d79",
      "transactionIndex": "0x4b",
      "blockHash": "0xd7a69a02778dba9f5fe85a403112f387b398e47b5c7404dec4ddd22424b27b7f",
      "blockNumber": "0x9b4319",
      "gasUsed": "0x69cd",
      "effectiveGasPrice": "0x41aa5fc4",
      "from": "0x29f4d70a6f8fdd15ee20231b840089e8aed2ae76",
      "to": "0x53f646df4442a1caca581078ca63076d882640a4",
      "contractAddress": null
    },
    {
      "status": "0x1",
      "cumulativeGasUsed": "0x767fbd",
      "logs": [
        {
          "address": "0x0b2b7b0fa0ad02d6a2bbe5d93cae06045f849c8a",
          "topics": [
            "0x8c5be1e5ebec7d5bd14f71427d1e84f3dd0314c0f7b2291e5b200ac8c7c3b925",
            "0x00000000000000000000000029f4d70a6f8fdd15ee20231b840089e8aed2ae76",
            "0x000000000000000000000000000000000022d473030f116ddee9f6b43ac78ba3"
          ],
          "data": "0xffffffffffffffffffffffffffffffffffffffffffffffffffffffffffffffff",
          "blockHash": "0xd7a69a02778dba9f5fe85a403112f387b398e47b5c7404dec4ddd22424b27b7f",
          "blockNumber": "0x9b4319",
          "blockTimestamp": "0x6980799c",
          "transactionHash": "0x45801cab9685be5cbb846674e21a56d1061dd6a178790e50c7435cbc4157c569",
          "transactionIndex": "0x4c",
          "logIndex": "0x48",
          "removed": false
        }
      ],
      "logsBloom": "0x00004010000000000000000000000000000000000000000000000000000000000000000000000000000000010000000000000000800000000000000000200000000000000000000000004000000000000000000000000800000000000000000000000000000000000000000000000000000000000000000000000000000000000000000000000000000000010000000000000000000000000000000000000000020000000000000000000000000000000000000000000001000000000010000000000000000000000000000000000000000000000000000000000000000000000010000000000000000000000000000000000000000000000000000000000000",
      "type": "0x2",
      "transactionHash": "0x45801cab9685be5cbb846674e21a56d1061dd6a178790e50c7435cbc4157c569",
      "transactionIndex": "0x4c",
      "blockHash": "0xd7a69a02778dba9f5fe85a403112f387b398e47b5c7404dec4ddd22424b27b7f",
      "blockNumber": "0x9b4319",
      "gasUsed": "0x69cd",
      "effectiveGasPrice": "0x41aa5fc4",
      "from": "0x29f4d70a6f8fdd15ee20231b840089e8aed2ae76",
      "to": "0x0b2b7b0fa0ad02d6a2bbe5d93cae06045f849c8a",
      "contractAddress": null
    },
    {
      "status": "0x1",
      "cumulativeGasUsed": "0x76e98a",
      "logs": [
        {
          "address": "0x12b067d6755340bd03fdfa370d73a84f7ad06c19",
          "topics": [
            "0x8c5be1e5ebec7d5bd14f71427d1e84f3dd0314c0f7b2291e5b200ac8c7c3b925",
            "0x00000000000000000000000029f4d70a6f8fdd15ee20231b840089e8aed2ae76",
            "0x000000000000000000000000000000000022d473030f116ddee9f6b43ac78ba3"
          ],
          "data": "0xffffffffffffffffffffffffffffffffffffffffffffffffffffffffffffffff",
          "blockHash": "0xd7a69a02778dba9f5fe85a403112f387b398e47b5c7404dec4ddd22424b27b7f",
          "blockNumber": "0x9b4319",
          "blockTimestamp": "0x6980799c",
          "transactionHash": "0x8125f5fd17c43ccb838214e7ba4a974823cd0fb281847c59d7e9143923e69e9d",
          "transactionIndex": "0x4d",
          "logIndex": "0x49",
          "removed": false
        }
      ],
      "logsBloom": "0x00000010000000000000000000000000200000000000000000000000000000000000000000000000000000000000000000000000800000000000000000200000000000000000000000004000000000000000000000000800000000000000000000000000000000000000000000000000000000000000000000000000000000000000000000000000000000000000000000000000000000000000000000000000020000000000000000000000000000000004000000000001000000000010000000000000000000000000000000000000000000000000000000000000000000000010000000000000000000100000000000000000000000000000000000000000",
      "type": "0x2",
      "transactionHash": "0x8125f5fd17c43ccb838214e7ba4a974823cd0fb281847c59d7e9143923e69e9d",
      "transactionIndex": "0x4d",
      "blockHash": "0xd7a69a02778dba9f5fe85a403112f387b398e47b5c7404dec4ddd22424b27b7f",
      "blockNumber": "0x9b4319",
      "gasUsed": "0x69cd",
      "effectiveGasPrice": "0x41aa5fc4",
      "from": "0x29f4d70a6f8fdd15ee20231b840089e8aed2ae76",
      "to": "0x12b067d6755340bd03fdfa370d73a84f7ad06c19",
      "contractAddress": null
    },
    {
      "status": "0x1",
      "cumulativeGasUsed": "0x77a448",
      "logs": [
        {
          "address": "0x000000000022d473030f116ddee9f6b43ac78ba3",
          "topics": [
            "0xda9fa7c1b00402c17d0161b249b1ab8bbec047c5a52207b9c112deffd817036b",
            "0x00000000000000000000000029f4d70a6f8fdd15ee20231b840089e8aed2ae76",
            "0x00000000000000000000000053f646df4442a1caca581078ca63076d882640a4",
            "0x000000000000000000000000f13d190e9117920c703d79b5f33732e10049b115"
          ],
          "data": "0x000000000000000000000000ffffffffffffffffffffffffffffffffffffffff0000000000000000000000000000000000000000000000000000ffffffffffff",
          "blockHash": "0xd7a69a02778dba9f5fe85a403112f387b398e47b5c7404dec4ddd22424b27b7f",
          "blockNumber": "0x9b4319",
          "blockTimestamp": "0x6980799c",
          "transactionHash": "0x3277f8ee6e78a0a81d0dc2d64619c7ba78aabb545260b9aac15dcb11c16e14e5",
          "transactionIndex": "0x4e",
          "logIndex": "0x4a",
          "removed": false
        }
      ],
      "logsBloom": "0x00010210000000000000000000000000000000000000000000800000000000000000000000000000000000000000000000000000000000000000000000080000000000000000000000000000000000000000000000000000000000000000000000000000000000000000000000000000000000000000000000000000000000000020000000080000000000000000000000000000000000000000000000000000000000000000000000000000000000800000000000000001000000080010000000000000000000000000000000000000000000000000000040000000000080000000000000000000000000000000000000000000400000000000000000000400",
      "type": "0x2",
      "transactionHash": "0x3277f8ee6e78a0a81d0dc2d64619c7ba78aabb545260b9aac15dcb11c16e14e5",
      "transactionIndex": "0x4e",
      "blockHash": "0xd7a69a02778dba9f5fe85a403112f387b398e47b5c7404dec4ddd22424b27b7f",
      "blockNumber": "0x9b4319",
      "gasUsed": "0xbabe",
      "effectiveGasPrice": "0x41aa5fc4",
      "from": "0x29f4d70a6f8fdd15ee20231b840089e8aed2ae76",
      "to": "0x000000000022d473030f116ddee9f6b43ac78ba3",
      "contractAddress": null
    },
    {
      "status": "0x1",
      "cumulativeGasUsed": "0x785f06",
      "logs": [
        {
          "address": "0x000000000022d473030f116ddee9f6b43ac78ba3",
          "topics": [
            "0xda9fa7c1b00402c17d0161b249b1ab8bbec047c5a52207b9c112deffd817036b",
            "0x00000000000000000000000029f4d70a6f8fdd15ee20231b840089e8aed2ae76",
            "0x0000000000000000000000000b2b7b0fa0ad02d6a2bbe5d93cae06045f849c8a",
            "0x000000000000000000000000f13d190e9117920c703d79b5f33732e10049b115"
          ],
          "data": "0x000000000000000000000000ffffffffffffffffffffffffffffffffffffffff0000000000000000000000000000000000000000000000000000ffffffffffff",
          "blockHash": "0xd7a69a02778dba9f5fe85a403112f387b398e47b5c7404dec4ddd22424b27b7f",
          "blockNumber": "0x9b4319",
          "blockTimestamp": "0x6980799c",
          "transactionHash": "0x0d2a8153416059c9a2f241d47cf440664a98453e52bf0945ee50af1bd37733b2",
          "transactionIndex": "0x4f",
          "logIndex": "0x4b",
          "removed": false
        }
      ],
      "logsBloom": "0x00010010000000000000000000000000000000000000000000800000000000000000000000000000000000000000000000000000000000100000000000080000000000000000000000000000000008000000000000000000000000000000000000000000000000000000000000000000000000000000000000000000000000000020000000080000000000000000000000000000000000000000000000000000000000000000000000000000000000000000000000000001000000080010000000000000000000000000000000000000000001000000000040000000000080000000000000000000000000000000000000000000000000000000000000000400",
      "type": "0x2",
      "transactionHash": "0x0d2a8153416059c9a2f241d47cf440664a98453e52bf0945ee50af1bd37733b2",
      "transactionIndex": "0x4f",
      "blockHash": "0xd7a69a02778dba9f5fe85a403112f387b398e47b5c7404dec4ddd22424b27b7f",
      "blockNumber": "0x9b4319",
      "gasUsed": "0xbabe",
      "effectiveGasPrice": "0x41aa5fc4",
      "from": "0x29f4d70a6f8fdd15ee20231b840089e8aed2ae76",
      "to": "0x000000000022d473030f116ddee9f6b43ac78ba3",
      "contractAddress": null
    },
    {
      "status": "0x1",
      "cumulativeGasUsed": "0x7919c4",
      "logs": [
        {
          "address": "0x000000000022d473030f116ddee9f6b43ac78ba3",
          "topics": [
            "0xda9fa7c1b00402c17d0161b249b1ab8bbec047c5a52207b9c112deffd817036b",
            "0x00000000000000000000000029f4d70a6f8fdd15ee20231b840089e8aed2ae76",
            "0x00000000000000000000000012b067d6755340bd03fdfa370d73a84f7ad06c19",
            "0x000000000000000000000000f13d190e9117920c703d79b5f33732e10049b115"
          ],
          "data": "0x000000000000000000000000ffffffffffffffffffffffffffffffffffffffff0000000000000000000000000000000000000000000000000000ffffffffffff",
          "blockHash": "0xd7a69a02778dba9f5fe85a403112f387b398e47b5c7404dec4ddd22424b27b7f",
          "blockNumber": "0x9b4319",
          "blockTimestamp": "0x6980799c",
          "transactionHash": "0xaadb71708bbbfc7a5dce6cb8221e840ea62ac39d74f9dd7a3a9d90bf069d3e01",
          "transactionIndex": "0x50",
          "logIndex": "0x4c",
          "removed": false
        }
      ],
      "logsBloom": "0x00010010000000000000000000000000000000000000000000800000000000000000000000000000000000000000000000000000000000000000000000080000000000000000000000000000000000000000000000000000000000000000000000000000000000000000000000000000000000000000000000000000000000000020000000080000000000000000000000000000000000000000000000000000000000000000000000000000000000000000000000000001000000080010000000000000000000000000000100000000000000000000000040000000000080000004000000000000000000000000000000000080000000000000000000000400",
      "type": "0x2",
      "transactionHash": "0xaadb71708bbbfc7a5dce6cb8221e840ea62ac39d74f9dd7a3a9d90bf069d3e01",
      "transactionIndex": "0x50",
      "blockHash": "0xd7a69a02778dba9f5fe85a403112f387b398e47b5c7404dec4ddd22424b27b7f",
      "blockNumber": "0x9b4319",
      "gasUsed": "0xbabe",
      "effectiveGasPrice": "0x41aa5fc4",
      "from": "0x29f4d70a6f8fdd15ee20231b840089e8aed2ae76",
      "to": "0x000000000022d473030f116ddee9f6b43ac78ba3",
      "contractAddress": null
    },
    {
      "status": "0x1",
      "cumulativeGasUsed": "0x79d17d",
      "logs": [
        {
          "address": "0x53f646df4442a1caca581078ca63076d882640a4",
          "topics": [
            "0x8c5be1e5ebec7d5bd14f71427d1e84f3dd0314c0f7b2291e5b200ac8c7c3b925",
            "0x00000000000000000000000029f4d70a6f8fdd15ee20231b840089e8aed2ae76",
            "0x000000000000000000000000f13d190e9117920c703d79b5f33732e10049b115"
          ],
          "data": "0xffffffffffffffffffffffffffffffffffffffffffffffffffffffffffffffff",
          "blockHash": "0xd7a69a02778dba9f5fe85a403112f387b398e47b5c7404dec4ddd22424b27b7f",
          "blockNumber": "0x9b4319",
          "blockTimestamp": "0x6980799c",
          "transactionHash": "0xaa0a8160fbb9378c445328377833027f08b316fe5cceedf2e2759587b0d714a8",
          "transactionIndex": "0x51",
          "logIndex": "0x4d",
          "removed": false
        }
      ],
      "logsBloom": "0x00000010000000000000200000000000000000000000000000800000000000000000000000000000000000000000000000000000000000000000000000200000000000000000000000000000000000100000000000000000000000000000000000000000000000000000000000000000000000000000000000000000000000000000000000080000000000000000000000000000000000000000000000000000020000000000000000000000000000000000000000000001000000000010000000000000000000000000000000000000000000001000000000000000000080000010000000000000000000000000000000000000000000000000000000000000",
      "type": "0x2",
      "transactionHash": "0xaa0a8160fbb9378c445328377833027f08b316fe5cceedf2e2759587b0d714a8",
      "transactionIndex": "0x51",
      "blockHash": "0xd7a69a02778dba9f5fe85a403112f387b398e47b5c7404dec4ddd22424b27b7f",
      "blockNumber": "0x9b4319",
      "gasUsed": "0xb7b9",
      "effectiveGasPrice": "0x41aa5fc4",
      "from": "0x29f4d70a6f8fdd15ee20231b840089e8aed2ae76",
      "to": "0x53f646df4442a1caca581078ca63076d882640a4",
      "contractAddress": null
    },
    {
      "status": "0x1",
      "cumulativeGasUsed": "0x7a8936",
      "logs": [
        {
          "address": "0x0b2b7b0fa0ad02d6a2bbe5d93cae06045f849c8a",
          "topics": [
            "0x8c5be1e5ebec7d5bd14f71427d1e84f3dd0314c0f7b2291e5b200ac8c7c3b925",
            "0x00000000000000000000000029f4d70a6f8fdd15ee20231b840089e8aed2ae76",
            "0x000000000000000000000000f13d190e9117920c703d79b5f33732e10049b115"
          ],
          "data": "0xffffffffffffffffffffffffffffffffffffffffffffffffffffffffffffffff",
          "blockHash": "0xd7a69a02778dba9f5fe85a403112f387b398e47b5c7404dec4ddd22424b27b7f",
          "blockNumber": "0x9b4319",
          "blockTimestamp": "0x6980799c",
          "transactionHash": "0xc234600a4e9c9b33c602fbd1330e1b5c075af0462eee230b19a719df57e303f3",
          "transactionIndex": "0x52",
          "logIndex": "0x4e",
          "removed": false
        }
      ],
      "logsBloom": "0x00004010000000000000000000000000000000000000000000800000000000000000000000000000000000010000000000000000000000000000000000200000000000000000000000000000000000000000000000000000000000000000000000000000000000000000000000000000000000000000000000000000000000000000000000080000000000010000000000000000000000000000000000000000020000000000000000000000000000000000000000000001000000000010000000000000000000000000000000000000000000000000000000000000000080000010000000000000000000000000000000000000000000000000000000000000",
      "type": "0x2",
      "transactionHash": "0xc234600a4e9c9b33c602fbd1330e1b5c075af0462eee230b19a719df57e303f3",
      "transactionIndex": "0x52",
      "blockHash": "0xd7a69a02778dba9f5fe85a403112f387b398e47b5c7404dec4ddd22424b27b7f",
      "blockNumber": "0x9b4319",
      "gasUsed": "0xb7b9",
      "effectiveGasPrice": "0x41aa5fc4",
      "from": "0x29f4d70a6f8fdd15ee20231b840089e8aed2ae76",
      "to": "0x0b2b7b0fa0ad02d6a2bbe5d93cae06045f849c8a",
      "contractAddress": null
    },
    {
      "status": "0x1",
      "cumulativeGasUsed": "0x7b40ef",
      "logs": [
        {
          "address": "0x12b067d6755340bd03fdfa370d73a84f7ad06c19",
          "topics": [
            "0x8c5be1e5ebec7d5bd14f71427d1e84f3dd0314c0f7b2291e5b200ac8c7c3b925",
            "0x00000000000000000000000029f4d70a6f8fdd15ee20231b840089e8aed2ae76",
            "0x000000000000000000000000f13d190e9117920c703d79b5f33732e10049b115"
          ],
          "data": "0xffffffffffffffffffffffffffffffffffffffffffffffffffffffffffffffff",
          "blockHash": "0xd7a69a02778dba9f5fe85a403112f387b398e47b5c7404dec4ddd22424b27b7f",
          "blockNumber": "0x9b4319",
          "blockTimestamp": "0x6980799c",
          "transactionHash": "0x27e99613264114b7baf4778b403649e9e4e990f25a804915cc6d92a668989494",
          "transactionIndex": "0x53",
          "logIndex": "0x4f",
          "removed": false
        }
      ],
      "logsBloom": "0x00000010000000000000000000000000200000000000000000800000000000000000000000000000000000000000000000000000000000000000000000200000000000000000000000000000000000000000000000000000000000000000000000000000000000000000000000000000000000000000000000000000000000000000000000080000000000000000000000000000000000000000000000000000020000000000000000000000000000000004000000000001000000000010000000000000000000000000000000000000000000000000000000000000000080000010000000000000000000100000000000000000000000000000000000000000",
      "type": "0x2",
      "transactionHash": "0x27e99613264114b7baf4778b403649e9e4e990f25a804915cc6d92a668989494",
      "transactionIndex": "0x53",
      "blockHash": "0xd7a69a02778dba9f5fe85a403112f387b398e47b5c7404dec4ddd22424b27b7f",
      "blockNumber": "0x9b4319",
      "gasUsed": "0xb7b9",
      "effectiveGasPrice": "0x41aa5fc4",
      "from": "0x29f4d70a6f8fdd15ee20231b840089e8aed2ae76",
      "to": "0x12b067d6755340bd03fdfa370d73a84f7ad06c19",
      "contractAddress": null
    },
    {
      "status": "0x1",
      "cumulativeGasUsed": "0x7ded32",
      "logs": [
        {
          "address": "0x9c981cdc56335664f21448ca4f40c54390b7d0c0",
          "topics": [
            "0xd2adfdf76f1b49cd0444f935638cd43e6effec410592a55f90e2ebbdb5d9c4bc",
            "0x244a813e4231897b688102fb2d5d00286ac0488eaa0fc02e4dd414c198413abc"
          ],
          "data": "0x0000000000000000000000000000000000000000000000000000000000000bb80000000000000000000000000000000000000000000000000000000000000013",
          "blockHash": "0xd7a69a02778dba9f5fe85a403112f387b398e47b5c7404dec4ddd22424b27b7f",
          "blockNumber": "0x9b4319",
          "blockTimestamp": "0x6980799c",
          "transactionHash": "0x26555022f88958c4543ff55edc7702f2b3c68eb9464c28465ec2c493d3467178",
          "transactionIndex": "0x54",
          "logIndex": "0x50",
          "removed": false
        },
        {
          "address": "0xe03a1074c86cfedd5c142c4f04f1a1536e203543",
          "topics": [
            "0x40e9cecb9f5f1f1c5b9c97dec2917b7ee92e57ba5563708daca94dd84ad7112f",
            "0x244a813e4231897b688102fb2d5d00286ac0488eaa0fc02e4dd414c198413abc",
            "0x000000000000000000000000f13d190e9117920c703d79b5f33732e10049b115"
          ],
          "data": "0xffffffffffffffffffffffffffffffffffffffffffffffffffdc790d903f0000000000000000000000000000000000000000000000000000002362a176fca7380000000000000000000000000000000000000000ffbeb9c6970024779a0a218f0000000000000000000000000000000000000000000000008ac7230489e80000ffffffffffffffffffffffffffffffffffffffffffffffffffffffffffffffec0000000000000000000000000000000000000000000000000000000000000bb8",
          "blockHash": "0xd7a69a02778dba9f5fe85a403112f387b398e47b5c7404dec4ddd22424b27b7f",
          "blockNumber": "0x9b4319",
          "blockTimestamp": "0x6980799c",
          "transactionHash": "0x26555022f88958c4543ff55edc7702f2b3c68eb9464c28465ec2c493d3467178",
          "transactionIndex": "0x54",
          "logIndex": "0x51",
          "removed": false
        },
        {
          "address": "0x12b067d6755340bd03fdfa370d73a84f7ad06c19",
          "topics": [
            "0xddf252ad1be2c89b69c2b068fc378daa952ba7f163c4a11628f55a4df523b3ef",
            "0x00000000000000000000000029f4d70a6f8fdd15ee20231b840089e8aed2ae76",
            "0x000000000000000000000000e03a1074c86cfedd5c142c4f04f1a1536e203543"
          ],
          "data": "0x000000000000000000000000000000000000000000000000002386f26fc10000",
          "blockHash": "0xd7a69a02778dba9f5fe85a403112f387b398e47b5c7404dec4ddd22424b27b7f",
          "blockNumber": "0x9b4319",
          "blockTimestamp": "0x6980799c",
          "transactionHash": "0x26555022f88958c4543ff55edc7702f2b3c68eb9464c28465ec2c493d3467178",
          "transactionIndex": "0x54",
          "logIndex": "0x52",
          "removed": false
        },
        {
          "address": "0x53f646df4442a1caca581078ca63076d882640a4",
          "topics": [
            "0xddf252ad1be2c89b69c2b068fc378daa952ba7f163c4a11628f55a4df523b3ef",
            "0x000000000000000000000000e03a1074c86cfedd5c142c4f04f1a1536e203543",
            "0x00000000000000000000000029f4d70a6f8fdd15ee20231b840089e8aed2ae76"
          ],
          "data": "0x000000000000000000000000000000000000000000000000002362a176fca738",
          "blockHash": "0xd7a69a02778dba9f5fe85a403112f387b398e47b5c7404dec4ddd22424b27b7f",
          "blockNumber": "0x9b4319",
          "blockTimestamp": "0x6980799c",
          "transactionHash": "0x26555022f88958c4543ff55edc7702f2b3c68eb9464c28465ec2c493d3467178",
          "transactionIndex": "0x54",
          "logIndex": "0x53",
          "removed": false
        }
      ],
      "logsBloom": "0x00000010000000000000200000000004200000000000000000800000000000000000000010000000000000000000000000000100040000000000000000000000020000000000000000000008000000100040000000000020000000000000000000000000002000000000000080000000000100000000100000000010000004000000000000080000000010000000000000000000000000000000000000000000000000000000000000000000000000000004000000800001000000000010000000000002000000000000000000000000000000001000000000001000000080001000000000000000004000100000000000000000000000000000000000000000",
      "type": "0x2",
      "transactionHash": "0x26555022f88958c4543ff55edc7702f2b3c68eb9464c28465ec2c493d3467178",
      "transactionIndex": "0x54",
      "blockHash": "0xd7a69a02778dba9f5fe85a403112f387b398e47b5c7404dec4ddd22424b27b7f",
      "blockNumber": "0x9b4319",
      "gasUsed": "0x2ac43",
      "effectiveGasPrice": "0x41aa5fc4",
      "from": "0x29f4d70a6f8fdd15ee20231b840089e8aed2ae76",
      "to": "0xf13d190e9117920c703d79b5f33732e10049b115",
      "contractAddress": null
    },
    {
      "status": "0x1",
      "cumulativeGasUsed": "0x804330",
      "logs": [
        {
          "address": "0x9c981cdc56335664f21448ca4f40c54390b7d0c0",
          "topics": [
            "0xd2adfdf76f1b49cd0444f935638cd43e6effec410592a55f90e2ebbdb5d9c4bc",
            "0x244a813e4231897b688102fb2d5d00286ac0488eaa0fc02e4dd414c198413abc"
          ],
          "data": "0x000000000000000000000000000000000000000000000000000000000000271000000000000000000000000000000000000000000000000000000000000003b8",
          "blockHash": "0xd7a69a02778dba9f5fe85a403112f387b398e47b5c7404dec4ddd22424b27b7f",
          "blockNumber": "0x9b4319",
          "blockTimestamp": "0x6980799c",
          "transactionHash": "0x64405ea7ca35ba2a4a75238fb673ca487ea81bbb94ec6c9fe8a2ecbe57c7793d",
          "transactionIndex": "0x55",
          "logIndex": "0x54",
          "removed": false
        },
        {
          "address": "0xe03a1074c86cfedd5c142c4f04f1a1536e203543",
          "topics": [
            "0x40e9cecb9f5f1f1c5b9c97dec2917b7ee92e57ba5563708daca94dd84ad7112f",
            "0x244a813e4231897b688102fb2d5d00286ac0488eaa0fc02e4dd414c198413abc",
            "0x000000000000000000000000f13d190e9117920c703d79b5f33732e10049b115"
          ],
          "data": "0xfffffffffffffffffffffffffffffffffffffffffffffffff90fa4a62c4e000000000000000000000000000000000000000000000000000006886416cc5cab720000000000000000000000000000000000000000f3b1b577d47ce82b5d299eac0000000000000000000000000000000000000000000000008ac7230489e80000fffffffffffffffffffffffffffffffffffffffffffffffffffffffffffffc260000000000000000000000000000000000000000000000000000000000002710",
          "blockHash": "0xd7a69a02778dba9f5fe85a403112f387b398e47b5c7404dec4ddd22424b27b7f",
          "blockNumber": "0x9b4319",
          "blockTimestamp": "0x6980799c",
          "transactionHash": "0x64405ea7ca35ba2a4a75238fb673ca487ea81bbb94ec6c9fe8a2ecbe57c7793d",
          "transactionIndex": "0x55",
          "logIndex": "0x55",
          "removed": false
        },
        {
          "address": "0x12b067d6755340bd03fdfa370d73a84f7ad06c19",
          "topics": [
            "0xddf252ad1be2c89b69c2b068fc378daa952ba7f163c4a11628f55a4df523b3ef",
            "0x00000000000000000000000029f4d70a6f8fdd15ee20231b840089e8aed2ae76",
            "0x000000000000000000000000e03a1074c86cfedd5c142c4f04f1a1536e203543"
          ],
          "data": "0x00000000000000000000000000000000000000000000000006f05b59d3b20000",
          "blockHash": "0xd7a69a02778dba9f5fe85a403112f387b398e47b5c7404dec4ddd22424b27b7f",
          "blockNumber": "0x9b4319",
          "blockTimestamp": "0x6980799c",
          "transactionHash": "0x64405ea7ca35ba2a4a75238fb673ca487ea81bbb94ec6c9fe8a2ecbe57c7793d",
          "transactionIndex": "0x55",
          "logIndex": "0x56",
          "removed": false
        },
        {
          "address": "0x53f646df4442a1caca581078ca63076d882640a4",
          "topics": [
            "0xddf252ad1be2c89b69c2b068fc378daa952ba7f163c4a11628f55a4df523b3ef",
            "0x000000000000000000000000e03a1074c86cfedd5c142c4f04f1a1536e203543",
            "0x00000000000000000000000029f4d70a6f8fdd15ee20231b840089e8aed2ae76"
          ],
          "data": "0x00000000000000000000000000000000000000000000000006886416cc5cab72",
          "blockHash": "0xd7a69a02778dba9f5fe85a403112f387b398e47b5c7404dec4ddd22424b27b7f",
          "blockNumber": "0x9b4319",
          "blockTimestamp": "0x6980799c",
          "transactionHash": "0x64405ea7ca35ba2a4a75238fb673ca487ea81bbb94ec6c9fe8a2ecbe57c7793d",
          "transactionIndex": "0x55",
          "logIndex": "0x57",
          "removed": false
        }
      ],
      "logsBloom": "0x00000010000000000000200000000004200000000000000000800000000000000000000010000000000000000000000000000100040000000000000000000000020000000000000000000008000000100040000000000020000000000000000000000000002000000000000080000000000100000000100000000010000004000000000000080000000010000000000000000000000000000000000000000000000000000000000000000000000000000004000000800001000000000010000000000002000000000000000000000000000000001000000000001000000080001000000000000000004000100000000000000000000000000000000000000000",
      "type": "0x2",
      "transactionHash": "0x64405ea7ca35ba2a4a75238fb673ca487ea81bbb94ec6c9fe8a2ecbe57c7793d",
      "transactionIndex": "0x55",
      "blockHash": "0xd7a69a02778dba9f5fe85a403112f387b398e47b5c7404dec4ddd22424b27b7f",
      "blockNumber": "0x9b4319",
      "gasUsed": "0x255fe",
      "effectiveGasPrice": "0x41aa5fc4",
      "from": "0x29f4d70a6f8fdd15ee20231b840089e8aed2ae76",
      "to": "0xf13d190e9117920c703d79b5f33732e10049b115",
      "contractAddress": null
    },
    {
      "status": "0x1",
      "cumulativeGasUsed": "0x823c02",
      "logs": [
        {
          "address": "0xe03a1074c86cfedd5c142c4f04f1a1536e203543",
          "topics": [
            "0x40e9cecb9f5f1f1c5b9c97dec2917b7ee92e57ba5563708daca94dd84ad7112f",
            "0x3917e2df25f138fac834798f50946127f49d2991edfcbd893bf1df3c4a6f366b",
            "0x000000000000000000000000f13d190e9117920c703d79b5f33732e10049b115"
          ],
          "data": "0xfffffffffffffffffffffffffffffffffffffffffffffffd4a1c50e94e78000000000000000000000000000000000000000000000000000292f5690eb6142dfd0000000000000000000000000000000000000000f3d827e497865ed4c113725400000000000000000000000000000000000000000000003635c9adc5dea00000fffffffffffffffffffffffffffffffffffffffffffffffffffffffffffffc330000000000000000000000000000000000000000000000000000000000000bb8",
          "blockHash": "0xd7a69a02778dba9f5fe85a403112f387b398e47b5c7404dec4ddd22424b27b7f",
          "blockNumber": "0x9b4319",
          "blockTimestamp": "0x6980799c",
          "transactionHash": "0xe87714ef4580f2592516352276ba438ca86ba67a0f28bf9c74b319b13ff68d08",
          "transactionIndex": "0x56",
          "logIndex": "0x58",
          "removed": false
        },
        {
          "address": "0x0b2b7b0fa0ad02d6a2bbe5d93cae06045f849c8a",
          "topics": [
            "0xddf252ad1be2c89b69c2b068fc378daa952ba7f163c4a11628f55a4df523b3ef",
            "0x00000000000000000000000029f4d70a6f8fdd15ee20231b840089e8aed2ae76",
            "0x000000000000000000000000e03a1074c86cfedd5c142c4f04f1a1536e203543"
          ],
          "data": "0x000000000000000000000000000000000000000000000002b5e3af16b1880000",
          "blockHash": "0xd7a69a02778dba9f5fe85a403112f387b398e47b5c7404dec4ddd22424b27b7f",
          "blockNumber": "0x9b4319",
          "blockTimestamp": "0x6980799c",
          "transactionHash": "0xe87714ef4580f2592516352276ba438ca86ba67a0f28bf9c74b319b13ff68d08",
          "transactionIndex": "0x56",
          "logIndex": "0x59",
          "removed": false
        },
        {
          "address": "0x53f646df4442a1caca581078ca63076d882640a4",
          "topics": [
            "0xddf252ad1be2c89b69c2b068fc378daa952ba7f163c4a11628f55a4df523b3ef",
            "0x000000000000000000000000e03a1074c86cfedd5c142c4f04f1a1536e203543",
            "0x00000000000000000000000029f4d70a6f8fdd15ee20231b840089e8aed2ae76"
          ],
          "data": "0x00000000000000000000000000000000000000000000000292f5690eb6142dfd",
          "blockHash": "0xd7a69a02778dba9f5fe85a403112f387b398e47b5c7404dec4ddd22424b27b7f",
          "blockNumber": "0x9b4319",
          "blockTimestamp": "0x6980799c",
          "transactionHash": "0xe87714ef4580f2592516352276ba438ca86ba67a0f28bf9c74b319b13ff68d08",
          "transactionIndex": "0x56",
          "logIndex": "0x5a",
          "removed": false
        }
      ],
      "logsBloom": "0x00004010000000000000200000000000000000000000000000800000000000000000000000000000000000010000000000000100040000000000000000000000000000000000000000000008000000100200000000000020000000000000000000000000000000000000000080000000000000000000100000000010000000000000000000080000000010010000000000000000000000000000000000010000000000000000000000000000000000000000000000000001000000000010000000000002000000000000000000000000000000001000000000001000000080001000000000000000004000000000000004000000000000000000000000000000",
      "type": "0x2",
      "transactionHash": "0xe87714ef4580f2592516352276ba438ca86ba67a0f28bf9c74b319b13ff68d08",
      "transactionIndex": "0x56",
      "blockHash": "0xd7a69a02778dba9f5fe85a403112f387b398e47b5c7404dec4ddd22424b27b7f",
      "blockNumber": "0x9b4319",
      "gasUsed": "0x1f8d2",
      "effectiveGasPrice": "0x41aa5fc4",
      "from": "0x29f4d70a6f8fdd15ee20231b840089e8aed2ae76",
      "to": "0xf13d190e9117920c703d79b5f33732e10049b115",
      "contractAddress": null
    },
    {
      "status": "0x1",
      "cumulativeGasUsed": "0x84a7c7",
      "logs": [
        {
          "address": "0x9c981cdc56335664f21448ca4f40c54390b7d0c0",
          "topics": [
            "0xd2adfdf76f1b49cd0444f935638cd43e6effec410592a55f90e2ebbdb5d9c4bc",
            "0x244a813e4231897b688102fb2d5d00286ac0488eaa0fc02e4dd414c198413abc"
          ],
          "data": "0x0000000000000000000000000000000000000000000000000000000000000bb80000000000000000000000000000000000000000000000000000000000000003",
          "blockHash": "0xd7a69a02778dba9f5fe85a403112f387b398e47b5c7404dec4ddd22424b27b7f",
          "blockNumber": "0x9b4319",
          "blockTimestamp": "0x6980799c",
          "transactionHash": "0xc07a35813011bc57b5127d1311c4364e2808dcbc582d2d2b40f1ea99a785a008",
          "transactionIndex": "0x57",
          "logIndex": "0x5b",
          "removed": false
        },
        {
          "address": "0xe03a1074c86cfedd5c142c4f04f1a1536e203543",
          "topics": [
            "0x40e9cecb9f5f1f1c5b9c97dec2917b7ee92e57ba5563708daca94dd84ad7112f",
            "0x244a813e4231897b688102fb2d5d00286ac0488eaa0fc02e4dd414c198413abc",
            "0x000000000000000000000000f13d190e9117920c703d79b5f33732e10049b115"
          ],
          "data": "0xfffffffffffffffffffffffffffffffffffffffffffffffff90fa4a62c4e000000000000000000000000000000000000000000000000000005fc260b1594df1a0000000000000000000000000000000000000000e8a764bed3544c73ee721fea0000000000000000000000000000000000000000000000008ac7230489e80000fffffffffffffffffffffffffffffffffffffffffffffffffffffffffffff8870000000000000000000000000000000000000000000000000000000000000bb8",
          "blockHash": "0xd7a69a02778dba9f5fe85a403112f387b398e47b5c7404dec4ddd22424b27b7f",
          "blockNumber": "0x9b4319",
          "blockTimestamp": "0x6980799c",
          "transactionHash": "0xc07a35813011bc57b5127d1311c4364e2808dcbc582d2d2b40f1ea99a785a008",
          "transactionIndex": "0x57",
          "logIndex": "0x5c",
          "removed": false
        },
        {
          "address": "0x12b067d6755340bd03fdfa370d73a84f7ad06c19",
          "topics": [
            "0xddf252ad1be2c89b69c2b068fc378daa952ba7f163c4a11628f55a4df523b3ef",
            "0x00000000000000000000000029f4d70a6f8fdd15ee20231b840089e8aed2ae76",
            "0x000000000000000000000000e03a1074c86cfedd5c142c4f04f1a1536e203543"
          ],
          "data": "0x00000000000000000000000000000000000000000000000006f05b59d3b20000",
          "blockHash": "0xd7a69a02778dba9f5fe85a403112f387b398e47b5c7404dec4ddd22424b27b7f",
          "blockNumber": "0x9b4319",
          "blockTimestamp": "0x6980799c",
          "transactionHash": "0xc07a35813011bc57b5127d1311c4364e2808dcbc582d2d2b40f1ea99a785a008",
          "transactionIndex": "0x57",
          "logIndex": "0x5d",
          "removed": false
        },
        {
          "address": "0x53f646df4442a1caca581078ca63076d882640a4",
          "topics": [
            "0xddf252ad1be2c89b69c2b068fc378daa952ba7f163c4a11628f55a4df523b3ef",
            "0x000000000000000000000000e03a1074c86cfedd5c142c4f04f1a1536e203543",
            "0x00000000000000000000000029f4d70a6f8fdd15ee20231b840089e8aed2ae76"
          ],
          "data": "0x00000000000000000000000000000000000000000000000005fc260b1594df1a",
          "blockHash": "0xd7a69a02778dba9f5fe85a403112f387b398e47b5c7404dec4ddd22424b27b7f",
          "blockNumber": "0x9b4319",
          "blockTimestamp": "0x6980799c",
          "transactionHash": "0xc07a35813011bc57b5127d1311c4364e2808dcbc582d2d2b40f1ea99a785a008",
          "transactionIndex": "0x57",
          "logIndex": "0x5e",
          "removed": false
        }
      ],
      "logsBloom": "0x00000010000000000000200000000004200000000000000000800000000000000000000010000000000000000000000000000100040000000000000000000000020000000000000000000008000000100040000000000020000000000000000000000000002000000000000080000000000100000000100000000010000004000000000000080000000010000000000000000000000000000000000000000000000000000000000000000000000000000004000000800001000000000010000000000002000000000000000000000000000000001000000000001000000080001000000000000000004000100000000000000000000000000000000000000000",
      "type": "0x2",
      "transactionHash": "0xc07a35813011bc57b5127d1311c4364e2808dcbc582d2d2b40f1ea99a785a008",
      "transactionIndex": "0x57",
      "blockHash": "0xd7a69a02778dba9f5fe85a403112f387b398e47b5c7404dec4ddd22424b27b7f",
      "blockNumber": "0x9b4319",
      "gasUsed": "0x26bc5",
      "effectiveGasPrice": "0x41aa5fc4",
      "from": "0x29f4d70a6f8fdd15ee20231b840089e8aed2ae76",
      "to": "0xf13d190e9117920c703d79b5f33732e10049b115",
      "contractAddress": null
    }
  ],
  "libraries": [],
  "pending": [],
  "returns": {},
  "timestamp": 1770027422558,
  "chain": 11155111,
  "commit": "9a77f15"
}