{
  "transactions": [
    {
      "hash": "0xf6be9c6872e6857ac48677b75c6f5d68f7e88d2a16789b34273ca409fe04801e",
      "transactionType": "CALL",
      "contractName": null,
      "contractAddress": "0xb33638d05b9a69bb1731027d3f3561cc03ad2c74",
      "function": "approve(address,uint256)",
      "arguments": [
        "0x000000000022D473030F116dDEE9F6B43aC78BA3",
        "115792089237316195423570985008687907853269984665640564039457584007913129639935"
      ],
      "transaction": {
        "from": "0x29f4d70a6f8fdd15ee20231b840089e8aed2ae76",
        "to": "0xb33638d05b9a69bb1731027d3f3561cc03ad2c74",
        "gas": "0x9222",
        "value": "0x0",
        "input": "0x095ea7b3000000000000000000000000000000000022d473030f116ddee9f6b43ac78ba3ffffffffffffffffffffffffffffffffffffffffffffffffffffffffffffffff",
        "nonce": "0x10",
        "chainId": "0xaa36a7"
      },
      "additionalContracts": [],
      "isFixedGasLimit": false
    },
    {
      "hash": "0x20ea87bc9403465d0dd0f88a244392fe15cb2722a4830ce3d3455bbd9cdb28da",
      "transactionType": "CALL",
      "contractName": null,
      "contractAddress": "0x75eaab39eb72db66372852e1beefeba2de5fe7f5",
      "function": "approve(address,uint256)",
      "arguments": [
        "0x000000000022D473030F116dDEE9F6B43aC78BA3",
        "115792089237316195423570985008687907853269984665640564039457584007913129639935"
      ],
      "transaction": {
        "from": "0x29f4d70a6f8fdd15ee20231b840089e8aed2ae76",
        "to": "0x75eaab39eb72db66372852e1beefeba2de5fe7f5",
        "gas": "0x9222",
        "value": "0x0",
        "input": "0x095ea7b3000000000000000000000000000000000022d473030f116ddee9f6b43ac78ba3ffffffffffffffffffffffffffffffffffffffffffffffffffffffffffffffff",
        "nonce": "0x11",
        "chainId": "0xaa36a7"
      },
      "additionalContracts": [],
      "isFixedGasLimit": false
    },
    {
      "hash": "0xa74c2aef5d635e4344d66a2e33a0715220a71683b3854f7b940a045872fe48f3",
      "transactionType": "CALL",
      "contractName": null,
      "contractAddress": "0xf4eb0d2406ad8897c0350b7be2551663a765c234",
      "function": "approve(address,uint256)",
      "arguments": [
        "0x000000000022D473030F116dDEE9F6B43aC78BA3",
        "115792089237316195423570985008687907853269984665640564039457584007913129639935"
      ],
      "transaction": {
        "from": "0x29f4d70a6f8fdd15ee20231b840089e8aed2ae76",
        "to": "0xf4eb0d2406ad8897c0350b7be2551663a765c234",
        "gas": "0x9222",
        "value": "0x0",
        "input": "0x095ea7b3000000000000000000000000000000000022d473030f116ddee9f6b43ac78ba3ffffffffffffffffffffffffffffffffffffffffffffffffffffffffffffffff",
        "nonce": "0x12",
        "chainId": "0xaa36a7"
      },
      "additionalContracts": [],
      "isFixedGasLimit": false
    },
    {
      "hash": "0x332cc364dfd87599adbdb1e67d718a1057f72992ad7bb6a1a949c8533ae304ca",
      "transactionType": "CALL",
      "contractName": null,
      "contractAddress": "0x000000000022d473030f116ddee9f6b43ac78ba3",
      "function": "approve(address,address,uint160,uint48)",
      "arguments": [
        "0xB33638d05b9A69bb1731027d3F3561Cc03aD2c74",
        "0xf13D190e9117920c703d79B5F33732e10049b115",
        "1461501637330902918203684832716283019655932542975",
        "281474976710655"
      ],
      "transaction": {
        "from": "0x29f4d70a6f8fdd15ee20231b840089e8aed2ae76",
        "to": "0x000000000022d473030f116ddee9f6b43ac78ba3",
        "gas": "0x101ee",
        "value": "0x0",
        "input": "0x87517c45000000000000000000000000b33638d05b9a69bb1731027d3f3561cc03ad2c74000000000000000000000000f13d190e9117920c703d79b5f33732e10049b115000000000000000000000000ffffffffffffffffffffffffffffffffffffffff0000000000000000000000000000000000000000000000000000ffffffffffff",
        "nonce": "0x13",
        "chainId": "0xaa36a7"
      },
      "additionalContracts": [],
      "isFixedGasLimit": false
    },
    {
      "hash": "0x6e2f513d6920aeb3ab47f61be196f2d50f75c8dc391d449e982cbecec6a8b7a7",
      "transactionType": "CALL",
      "contractName": null,
      "contractAddress": "0x000000000022d473030f116ddee9f6b43ac78ba3",
      "function": "approve(address,address,uint160,uint48)",
      "arguments": [
        "0x75EaaB39eB72db66372852e1beeFebA2dE5FE7f5",
        "0xf13D190e9117920c703d79B5F33732e10049b115",
        "1461501637330902918203684832716283019655932542975",
        "281474976710655"
      ],
      "transaction": {
        "from": "0x29f4d70a6f8fdd15ee20231b840089e8aed2ae76",
        "to": "0x000000000022d473030f116ddee9f6b43ac78ba3",
        "gas": "0x101ee",
        "value": "0x0",
        "input": "0x87517c4500000000000000000000000075eaab39eb72db66372852e1beefeba2de5fe7f5000000000000000000000000f13d190e9117920c703d79b5f33732e10049b115000000000000000000000000ffffffffffffffffffffffffffffffffffffffff0000000000000000000000000000000000000000000000000000ffffffffffff",
        "nonce": "0x14",
        "chainId": "0xaa36a7"
      },
      "additionalContracts": [],
      "isFixedGasLimit": false
    },
    {
      "hash": "0x289744ea0f44227a44fec4d9ce78cc5c73a5961f47d0b85ff4a2da143234790a",
      "transactionType": "CALL",
      "contractName": null,
      "contractAddress": "0x000000000022d473030f116ddee9f6b43ac78ba3",
      "function": "approve(address,address,uint160,uint48)",
      "arguments": [
        "0xF4EB0d2406aD8897c0350b7be2551663a765c234",
        "0xf13D190e9117920c703d79B5F33732e10049b115",
        "1461501637330902918203684832716283019655932542975",
        "281474976710655"
      ],
      "transaction": {
        "from": "0x29f4d70a6f8fdd15ee20231b840089e8aed2ae76",
        "to": "0x000000000022d473030f116ddee9f6b43ac78ba3",
        "gas": "0x101ee",
        "value": "0x0",
        "input": "0x87517c45000000000000000000000000f4eb0d2406ad8897c0350b7be2551663a765c234000000000000000000000000f13d190e9117920c703d79b5f33732e10049b115000000000000000000000000ffffffffffffffffffffffffffffffffffffffff0000000000000000000000000000000000000000000000000000ffffffffffff",
        "nonce": "0x15",
        "chainId": "0xaa36a7"
      },
      "additionalContracts": [],
      "isFixedGasLimit": false
    },
    {
      "hash": "0xc0b47b2457901c0f177cf0cc89774a5f179cf7fc8d8292dda52a9a0b1e36e1bd",
      "transactionType": "CALL",
      "contractName": null,
      "contractAddress": "0xb33638d05b9a69bb1731027d3f3561cc03ad2c74",
      "function": "approve(address,uint256)",
      "arguments": [
        "0xf13D190e9117920c703d79B5F33732e10049b115",
        "115792089237316195423570985008687907853269984665640564039457584007913129639935"
      ],
      "transaction": {
        "from": "0x29f4d70a6f8fdd15ee20231b840089e8aed2ae76",
        "to": "0xb33638d05b9a69bb1731027d3f3561cc03ad2c74",
        "gas": "0x10cb1",
        "value": "0x0",
        "input": "0x095ea7b3000000000000000000000000f13d190e9117920c703d79b5f33732e10049b115ffffffffffffffffffffffffffffffffffffffffffffffffffffffffffffffff",
        "nonce": "0x16",
        "chainId": "0xaa36a7"
      },
      "additionalContracts": [],
      "isFixedGasLimit": false
    },
    {
      "hash": "0xe47a71a799a242a55a505cb9a1d0fcc997373ee61b28aa079038a645d5d018bb",
      "transactionType": "CALL",
      "contractName": null,
      "contractAddress": "0x75eaab39eb72db66372852e1beefeba2de5fe7f5",
      "function": "approve(address,uint256)",
      "arguments": [
        "0xf13D190e9117920c703d79B5F33732e10049b115",
        "115792089237316195423570985008687907853269984665640564039457584007913129639935"
      ],
      "transaction": {
        "from": "0x29f4d70a6f8fdd15ee20231b840089e8aed2ae76",
        "to": "0x75eaab39eb72db66372852e1beefeba2de5fe7f5",
        "gas": "0x10cb1",
        "value": "0x0",
        "input": "0x095ea7b3000000000000000000000000f13d190e9117920c703d79b5f33732e10049b115ffffffffffffffffffffffffffffffffffffffffffffffffffffffffffffffff",
        "nonce": "0x17",
        "chainId": "0xaa36a7"
      },
      "additionalContracts": [],
      "isFixedGasLimit": false
    },
    {
      "hash": "0xa4c285f2a340a15e654ad79c7216209beb8d933177b8d778c62e3514eccf6731",
      "transactionType": "CALL",
      "contractName": null,
      "contractAddress": "0xf4eb0d2406ad8897c0350b7be2551663a765c234",
      "function": "approve(address,uint256)",
      "arguments": [
        "0xf13D190e9117920c703d79B5F33732e10049b115",
        "115792089237316195423570985008687907853269984665640564039457584007913129639935"
      ],
      "transaction": {
        "from": "0x29f4d70a6f8fdd15ee20231b840089e8aed2ae76",
        "to": "0xf4eb0d2406ad8897c0350b7be2551663a765c234",
        "gas": "0x10cb1",
        "value": "0x0",
        "input": "0x095ea7b3000000000000000000000000f13d190e9117920c703d79b5f33732e10049b115ffffffffffffffffffffffffffffffffffffffffffffffffffffffffffffffff",
        "nonce": "0x18",
        "chainId": "0xaa36a7"
      },
      "additionalContracts": [],
      "isFixedGasLimit": false
    },
    {
      "hash": "0x9bbdad20742e351aa921d56db31b489fb36803381c2102591de7a70e6ad2cff4",
      "transactionType": "CALL",
      "contractName": null,
      "contractAddress": "0xf13d190e9117920c703d79b5f33732e10049b115",
      "function": "swapExactTokensForTokens(uint256,uint256,bool,(address,address,uint24,int24,address),bytes,address,uint256)",
      "arguments": [
        "10000000000000000",
        "0",
        "true",
        "(0xB33638d05b9A69bb1731027d3F3561Cc03aD2c74, 0xF4EB0d2406aD8897c0350b7be2551663a765c234, 8388608, 60, 0x4112Af357570ADc7C6D35801Af1d64eEb57e90c0)",
        "0x",
        "0x29F4D70A6F8Fdd15Ee20231B840089e8AED2aE76",
        "1769870676"
      ],
      "transaction": {
        "from": "0x29f4d70a6f8fdd15ee20231b840089e8aed2ae76",
        "to": "0xf13d190e9117920c703d79b5f33732e10049b115",
        "gas": "0x380ce",
        "value": "0x0",
        "input": "0xb1a0d571000000000000000000000000000000000000000000000000002386f26fc1000000000000000000000000000000000000000000000000000000000000000000000000000000000000000000000000000000000000000000000000000000000001000000000000000000000000b33638d05b9a69bb1731027d3f3561cc03ad2c74000000000000000000000000f4eb0d2406ad8897c0350b7be2551663a765c2340000000000000000000000000000000000000000000000000000000000800000000000000000000000000000000000000000000000000000000000000000003c0000000000000000000000004112af357570adc7c6d35801af1d64eeb57e90c0000000000000000000000000000000000000000000000000000000000000016000000000000000000000000029f4d70a6f8fdd15ee20231b840089e8aed2ae7600000000000000000000000000000000000000000000000000000000697e15540000000000000000000000000000000000000000000000000000000000000000",
        "nonce": "0x19",
        "chainId": "0xaa36a7"
      },
      "additionalContracts": [],
      "isFixedGasLimit": false
    },
    {
      "hash": "0xd74ba7e8695be70e57de635fa869c6cd16a6912cdac57f55f916c2adc3ccf5c8",
      "transactionType": "CALL",
      "contractName": null,
      "contractAddress": "0xf13d190e9117920c703d79b5f33732e10049b115",
      "function": "swapExactTokensForTokens(uint256,uint256,bool,(address,address,uint24,int24,address),bytes,address,uint256)",
      "arguments": [
        "500000000000000000",
        "0",
        "true",
        "(0xB33638d05b9A69bb1731027d3F3561Cc03aD2c74, 0xF4EB0d2406aD8897c0350b7be2551663a765c234, 8388608, 60, 0x4112Af357570ADc7C6D35801Af1d64eEb57e90c0)",
        "0x",
        "0x29F4D70A6F8Fdd15Ee20231B840089e8AED2aE76",
        "1769870676"
      ],
      "transaction": {
        "from": "0x29f4d70a6f8fdd15ee20231b840089e8aed2ae76",
        "to": "0xf13d190e9117920c703d79b5f33732e10049b115",
        "gas": "0x3095e",
        "value": "0x0",
        "input": "0xb1a0d57100000000000000000000000000000000000000000000000006f05b59d3b2000000000000000000000000000000000000000000000000000000000000000000000000000000000000000000000000000000000000000000000000000000000001000000000000000000000000b33638d05b9a69bb1731027d3f3561cc03ad2c74000000000000000000000000f4eb0d2406ad8897c0350b7be2551663a765c2340000000000000000000000000000000000000000000000000000000000800000000000000000000000000000000000000000000000000000000000000000003c0000000000000000000000004112af357570adc7c6d35801af1d64eeb57e90c0000000000000000000000000000000000000000000000000000000000000016000000000000000000000000029f4d70a6f8fdd15ee20231b840089e8aed2ae7600000000000000000000000000000000000000000000000000000000697e15540000000000000000000000000000000000000000000000000000000000000000",
        "nonce": "0x1a",
        "chainId": "0xaa36a7"
      },
      "additionalContracts": [],
      "isFixedGasLimit": false
    },
    {
      "hash": "0x7623fd766fe013a2ce2a92f494110068efa83872bea6ea9654cfffe711ef7b5d",
      "transactionType": "CALL",
      "contractName": null,
      "contractAddress": "0xf13d190e9117920c703d79b5f33732e10049b115",
      "function": "swapExactTokensForTokens(uint256,uint256,bool,(address,address,uint24,int24,address),bytes,address,uint256)",
      "arguments": [
        "50000000000000000000",
        "0",
        "true",
        "(0x75EaaB39eB72db66372852e1beeFebA2dE5FE7f5, 0xB33638d05b9A69bb1731027d3F3561Cc03aD2c74, 3000, 60, 0x0000000000000000000000000000000000000000)",
        "0x",
        "0x29F4D70A6F8Fdd15Ee20231B840089e8AED2aE76",
        "1769870676"
      ],
      "transaction": {
        "from": "0x29f4d70a6f8fdd15ee20231b840089e8aed2ae76",
        "to": "0xf13d190e9117920c703d79b5f33732e10049b115",
        "gas": "0x2e24c",
        "value": "0x0",
        "input": "0xb1a0d571000000000000000000000000000000000000000000000002b5e3af16b18800000000000000000000000000000000000000000000000000000000000000000000000000000000000000000000000000000000000000000000000000000000000100000000000000000000000075eaab39eb72db66372852e1beefeba2de5fe7f5000000000000000000000000b33638d05b9a69bb1731027d3f3561cc03ad2c740000000000000000000000000000000000000000000000000000000000000bb8000000000000000000000000000000000000000000000000000000000000003c0000000000000000000000000000000000000000000000000000000000000000000000000000000000000000000000000000000000000000000000000000016000000000000000000000000029f4d70a6f8fdd15ee20231b840089e8aed2ae7600000000000000000000000000000000000000000000000000000000697e15540000000000000000000000000000000000000000000000000000000000000000",
        "nonce": "0x1b",
        "chainId": "0xaa36a7"
      },
      "additionalContracts": [],
      "isFixedGasLimit": false
    },
    {
      "hash": "0x3840c8d2ddf7b194e34862b091568b2ba8be2241c3bbf868f442fd77f490795c",
      "transactionType": "CALL",
      "contractName": null,
      "contractAddress": "0xf13d190e9117920c703d79b5f33732e10049b115",
      "function": "swapExactTokensForTokens(uint256,uint256,bool,(address,address,uint24,int24,address),bytes,address,uint256)",
      "arguments": [
        "500000000000000000",
        "0",
        "true",
        "(0xB33638d05b9A69bb1731027d3F3561Cc03aD2c74, 0xF4EB0d2406aD8897c0350b7be2551663a765c234, 8388608, 60, 0x4112Af357570ADc7C6D35801Af1d64eEb57e90c0)",
        "0x",
        "0x29F4D70A6F8Fdd15Ee20231B840089e8AED2aE76",
        "1769870676"
      ],
      "transaction": {
        "from": "0x29f4d70a6f8fdd15ee20231b840089e8aed2ae76",
        "to": "0xf13d190e9117920c703d79b5f33732e10049b115",
        "gas": "0x31788",
        "value": "0x0",
        "input": "0xb1a0d57100000000000000000000000000000000000000000000000006f05b59d3b2000000000000000000000000000000000000000000000000000000000000000000000000000000000000000000000000000000000000000000000000000000000001000000000000000000000000b33638d05b9a69bb1731027d3f3561cc03ad2c74000000000000000000000000f4eb0d2406ad8897c0350b7be2551663a765c2340000000000000000000000000000000000000000000000000000000000800000000000000000000000000000000000000000000000000000000000000000003c0000000000000000000000004112af357570adc7c6d35801af1d64eeb57e90c0000000000000000000000000000000000000000000000000000000000000016000000000000000000000000029f4d70a6f8fdd15ee20231b840089e8aed2ae7600000000000000000000000000000000000000000000000000000000697e15540000000000000000000000000000000000000000000000000000000000000000",
        "nonce": "0x1c",
        "chainId": "0xaa36a7"
      },
      "additionalContracts": [],
      "isFixedGasLimit": false
    }
  ],
  "receipts": [
    {
      "status": "0x1",
      "cumulativeGasUsed": "0x389a28b",
      "logs": [
        {
          "address": "0xb33638d05b9a69bb1731027d3f3561cc03ad2c74",
          "topics": [
            "0x8c5be1e5ebec7d5bd14f71427d1e84f3dd0314c0f7b2291e5b200ac8c7c3b925",
            "0x00000000000000000000000029f4d70a6f8fdd15ee20231b840089e8aed2ae76",
            "0x000000000000000000000000000000000022d473030f116ddee9f6b43ac78ba3"
          ],
          "data": "0xffffffffffffffffffffffffffffffffffffffffffffffffffffffffffffffff",
          "blockHash": "0xa5fcdfeea97c0cbb0d9ccef5887ace9c70fc570075be47d1d96d654ee2fdf4e2",
          "blockNumber": "0x9b11ca",
          "blockTimestamp": "0x697e0750",
          "transactionHash": "0x332cc364dfd87599adbdb1e67d718a1057f72992ad7bb6a1a949c8533ae304ca",
          "transactionIndex": "0x4f",
          "logIndex": "0x56",
          "removed": false
        }
      ],
      "logsBloom": "0x00000010000000000000000000000000400000000000000000000000000000000000000000000000000000000000000000000000800000000000000000200000000000000000000000004000000000000000000000000800000000000000000000000000000000000000000200000000000000000000000000000000000000000000000000000000000000000000000000000000000000000000000000000000020000000000000000000000000000000000000000000001000000000010000000000000000000000000000000000000000000000000000000000000000000000010000000000000000000000010000000000000000000000000000000000000",
      "type": "0x2",
      "transactionHash": "0x332cc364dfd87599adbdb1e67d718a1057f72992ad7bb6a1a949c8533ae304ca",
      "transactionIndex": "0x4f",
      "blockHash": "0xa5fcdfeea97c0cbb0d9ccef5887ace9c70fc570075be47d1d96d654ee2fdf4e2",
      "blockNumber": "0x9b11ca",
      "gasUsed": "0x69cd",
      "effectiveGasPrice": "0x38944e94",
      "from": "0x29f4d70a6f8fdd15ee20231b840089e8aed2ae76",
      "to": "0xb33638d05b9a69bb1731027d3f3561cc03ad2c74",
      "contractAddress": null
    },
    {
      "status": "0x1",
      "cumulativeGasUsed": "0x38a0c58",
      "logs": [
        {
          "address": "0x75eaab39eb72db66372852e1beefeba2de5fe7f5",
          "topics": [
            "0x8c5be1e5ebec7d5bd14f71427d1e84f3dd0314c0f7b2291e5b200ac8c7c3b925",
            "0x00000000000000000000000029f4d70a6f8fdd15ee20231b840089e8aed2ae76",
            "0x000000000000000000000000000000000022d473030f116ddee9f6b43ac78ba3"
          ],
          "data": "0xffffffffffffffffffffffffffffffffffffffffffffffffffffffffffffffff",
          "blockHash": "0xa5fcdfeea97c0cbb0d9ccef5887ace9c70fc570075be47d1d96d654ee2fdf4e2",
          "blockNumber": "0x9b11ca",
          "blockTimestamp": "0x697e0750",
          "transactionHash": "0xc0b47b2457901c0f177cf0cc89774a5f179cf7fc8d8292dda52a9a0b1e36e1bd",
          "transactionIndex": "0x50",
          "logIndex": "0x57",
          "removed": false
        }
      ],
      "logsBloom": "0x00000010000000000000000000000000000000000000000000000000000000000000000000000000000000000000000000000000800000000000000000200000000000000000000000004000000000000000000000000800000000000000000000000000000000000000000000080000000000000000000000000000000000000000000000000000000000000000000000000000000000000000000000000000020000000000000000000000000000000000000000000001000000000010000000000000002000000000000000000000000000000000000000000008000000000010000000000000000000000000000000000000000000000000000000000000",
      "type": "0x2",
      "transactionHash": "0xc0b47b2457901c0f177cf0cc89774a5f179cf7fc8d8292dda52a9a0b1e36e1bd",
      "transactionIndex": "0x50",
      "blockHash": "0xa5fcdfeea97c0cbb0d9ccef5887ace9c70fc570075be47d1d96d654ee2fdf4e2",
      "blockNumber": "0x9b11ca",
      "gasUsed": "0x69cd",
      "effectiveGasPrice": "0x38944e94",
      "from": "0x29f4d70a6f8fdd15ee20231b840089e8aed2ae76",
      "to": "0x75eaab39eb72db66372852e1beefeba2de5fe7f5",
      "contractAddress": null
    },
    {
      "status": "0x1",
      "cumulativeGasUsed": "0x38a7625",
      "logs": [
        {
          "address": "0xf4eb0d2406ad8897c0350b7be2551663a765c234",
          "topics": [
            "0x8c5be1e5ebec7d5bd14f71427d1e84f3dd0314c0f7b2291e5b200ac8c7c3b925",
            "0x00000000000000000000000029f4d70a6f8fdd15ee20231b840089e8aed2ae76",
            "0x000000000000000000000000000000000022d473030f116ddee9f6b43ac78ba3"
          ],
          "data": "0xffffffffffffffffffffffffffffffffffffffffffffffffffffffffffffffff",
          "blockHash": "0xa5fcdfeea97c0cbb0d9ccef5887ace9c70fc570075be47d1d96d654ee2fdf4e2",
          "blockNumber": "0x9b11ca",
          "blockTimestamp": "0x697e0750",
          "transactionHash": "0xa74c2aef5d635e4344d66a2e33a0715220a71683b3854f7b940a045872fe48f3",
          "transactionIndex": "0x51",
          "logIndex": "0x58",
          "removed": false
        }
      ],
      "logsBloom": "0x00000010000000000000000000000000000000000000000000000000000000000000000000000000000000000000000000000200800000000000000000200000000000000000000000004000000000000000000000000800000000000000000000000000000000000000000000000000000000000000000000000000000000000000000000000000000000000000000000000000000000000000000000000000020000000000000000000000000000000000000000000001000000000010000000000000000000000000000000000000000000000000000000000000000000000010000000000000000000000000000000002000000000000000000000000400",
      "type": "0x2",
      "transactionHash": "0xa74c2aef5d635e4344d66a2e33a0715220a71683b3854f7b940a045872fe48f3",
      "transactionIndex": "0x51",
      "blockHash": "0xa5fcdfeea97c0cbb0d9ccef5887ace9c70fc570075be47d1d96d654ee2fdf4e2",
      "blockNumber": "0x9b11ca",
      "gasUsed": "0x69cd",
      "effectiveGasPrice": "0x38944e94",
      "from": "0x29f4d70a6f8fdd15ee20231b840089e8aed2ae76",
      "to": "0xf4eb0d2406ad8897c0350b7be2551663a765c234",
      "contractAddress": null
    },
    {
      "status": "0x1",
      "cumulativeGasUsed": "0x38b30e3",
      "logs": [
        {
          "address": "0x000000000022d473030f116ddee9f6b43ac78ba3",
          "topics": [
            "0xda9fa7c1b00402c17d0161b249b1ab8bbec047c5a52207b9c112deffd817036b",
            "0x00000000000000000000000029f4d70a6f8fdd15ee20231b840089e8aed2ae76",
            "0x000000000000000000000000b33638d05b9a69bb1731027d3f3561cc03ad2c74",
            "0x000000000000000000000000f13d190e9117920c703d79b5f33732e10049b115"
          ],
          "data": "0x000000000000000000000000ffffffffffffffffffffffffffffffffffffffff0000000000000000000000000000000000000000000000000000ffffffffffff",
          "blockHash": "0xa5fcdfeea97c0cbb0d9ccef5887ace9c70fc570075be47d1d96d654ee2fdf4e2",
          "blockNumber": "0x9b11ca",
          "blockTimestamp": "0x697e0750",
          "transactionHash": "0xf6be9c6872e6857ac48677b75c6f5d68f7e88d2a16789b34273ca409fe04801e",
          "transactionIndex": "0x52",
          "logIndex": "0x59",
          "removed": false
        }
      ],
      "logsBloom": "0x00010010000000000000000000000000000000000000000000800000000000000000000000000000000000000000000000000000000000000000000000080000100000000000000000000000000000000000000000000000000000000000000000000000000000000000000000000000000000000000000000000000000010000020000000080000000000000000000000000000000000000000000000000000000000000000000000000000000000000000000000000001010000080010000000000000000000000000000000000000000000000000000040000000000080000000000000000000000000000000000000000000000000000000000000000400",
      "type": "0x2",
      "transactionHash": "0xf6be9c6872e6857ac48677b75c6f5d68f7e88d2a16789b34273ca409fe04801e",
      "transactionIndex": "0x52",
      "blockHash": "0xa5fcdfeea97c0cbb0d9ccef5887ace9c70fc570075be47d1d96d654ee2fdf4e2",
      "blockNumber": "0x9b11ca",
      "gasUsed": "0xbabe",
      "effectiveGasPrice": "0x38944e94",
      "from": "0x29f4d70a6f8fdd15ee20231b840089e8aed2ae76",
      "to": "0x000000000022d473030f116ddee9f6b43ac78ba3",
      "contractAddress": null
    },
    {
      "status": "0x1",
      "cumulativeGasUsed": "0x38beba1",
      "logs": [
        {
          "address": "0x000000000022d473030f116ddee9f6b43ac78ba3",
          "topics": [
            "0xda9fa7c1b00402c17d0161b249b1ab8bbec047c5a52207b9c112deffd817036b",
            "0x00000000000000000000000029f4d70a6f8fdd15ee20231b840089e8aed2ae76",
            "0x00000000000000000000000075eaab39eb72db66372852e1beefeba2de5fe7f5",
            "0x000000000000000000000000f13d190e9117920c703d79b5f33732e10049b115"
          ],
          "data": "0x000000000000000000000000ffffffffffffffffffffffffffffffffffffffff0000000000000000000000000000000000000000000000000000ffffffffffff",
          "blockHash": "0xa5fcdfeea97c0cbb0d9ccef5887ace9c70fc570075be47d1d96d654ee2fdf4e2",
          "blockNumber": "0x9b11ca",
          "blockTimestamp": "0x697e0750",
          "transactionHash": "0x3840c8d2ddf7b194e34862b091568b2ba8be2241c3bbf868f442fd77f490795c",
          "transactionIndex": "0x53",
          "logIndex": "0x5a",
          "removed": false
        }
      ],
      "logsBloom": "0x00010050000000000000000000000000000000000000000000800000000000000000000000000000000000000000000000000000000000000000000000080000000000000000000000000000000000000000000000000000000000000000000000000000000000000000000000400000000000000000000000000000000000000020000000080000000000000000000000000000000000000000000000000000000000000000000000000000000001000000000000000001000000080010000000000000000000000000000000000000000000000000000040000000000080000000000000000000000000000000000000000000000000000000000000000400",
      "type": "0x2",
      "transactionHash": "0x3840c8d2ddf7b194e34862b091568b2ba8be2241c3bbf868f442fd77f490795c",
      "transactionIndex": "0x53",
      "blockHash": "0xa5fcdfeea97c0cbb0d9ccef5887ace9c70fc570075be47d1d96d654ee2fdf4e2",
      "blockNumber": "0x9b11ca",
      "gasUsed": "0xbabe",
      "effectiveGasPrice": "0x38944e94",
      "from": "0x29f4d70a6f8fdd15ee20231b840089e8aed2ae76",
      "to": "0x000000000022d473030f116ddee9f6b43ac78ba3",
      "contractAddress": null
    },
    {
      "status": "0x1",
      "cumulativeGasUsed": "0x38ca65f",
      "logs": [
        {
          "address": "0x000000000022d473030f116ddee9f6b43ac78ba3",
          "topics": [
            "0xda9fa7c1b00402c17d0161b249b1ab8bbec047c5a52207b9c112deffd817036b",
            "0x00000000000000000000000029f4d70a6f8fdd15ee20231b840089e8aed2ae76",
            "0x000000000000000000000000f4eb0d2406ad8897c0350b7be2551663a765c234",
            "0x000000000000000000000000f13d190e9117920c703d79b5f33732e10049b115"
          ],
          "data": "0x000000000000000000000000ffffffffffffffffffffffffffffffffffffffff0000000000000000000000000000000000000000000000000000ffffffffffff",
          "blockHash": "0xa5fcdfeea97c0cbb0d9ccef5887ace9c70fc570075be47d1d96d654ee2fdf4e2",
          "blockNumber": "0x9b11ca",
          "blockTimestamp": "0x697e0750",
          "transactionHash": "0x20ea87bc9403465d0dd0f88a244392fe15cb2722a4830ce3d3455bbd9cdb28da",
          "transactionIndex": "0x54",
          "logIndex": "0x5b",
          "removed": false
        }
      ],
      "logsBloom": "0x00010010000000000000000000000000000000008000000000800000000000000000000000000000000000000000000000000000000000000000000000080000000000000000000000000000000000000000000000000000000000000000000000000000000000000000000000000000000000000000000000000000000000000020000000080000000000000000000000000000000000000000000000000000000000000000000000000000000000000004000000000001000000080010000000000000000000200000000000000000000000000000000040000000000080000000000000000000000000000000000000000000000000000000000000000400",
      "type": "0x2",
      "transactionHash": "0x20ea87bc9403465d0dd0f88a244392fe15cb2722a4830ce3d3455bbd9cdb28da",
      "transactionIndex": "0x54",
      "blockHash": "0xa5fcdfeea97c0cbb0d9ccef5887ace9c70fc570075be47d1d96d654ee2fdf4e2",
      "blockNumber": "0x9b11ca",
      "gasUsed": "0xbabe",
      "effectiveGasPrice": "0x38944e94",
      "from": "0x29f4d70a6f8fdd15ee20231b840089e8aed2ae76",
      "to": "0x000000000022d473030f116ddee9f6b43ac78ba3",
      "contractAddress": null
    },
    {
      "status": "0x1",
      "cumulativeGasUsed": "0x38d5e18",
      "logs": [
        {
          "address": "0xb33638d05b9a69bb1731027d3f3561cc03ad2c74",
          "topics": [
            "0x8c5be1e5ebec7d5bd14f71427d1e84f3dd0314c0f7b2291e5b200ac8c7c3b925",
            "0x00000000000000000000000029f4d70a6f8fdd15ee20231b840089e8aed2ae76",
            "0x000000000000000000000000f13d190e9117920c703d79b5f33732e10049b115"
          ],
          "data": "0xffffffffffffffffffffffffffffffffffffffffffffffffffffffffffffffff",
          "blockHash": "0xa5fcdfeea97c0cbb0d9ccef5887ace9c70fc570075be47d1d96d654ee2fdf4e2",
          "blockNumber": "0x9b11ca",
          "blockTimestamp": "0x697e0750",
          "transactionHash": "0xd74ba7e8695be70e57de635fa869c6cd16a6912cdac57f55f916c2adc3ccf5c8",
          "transactionIndex": "0x55",
          "logIndex": "0x5c",
          "removed": false
        }
      ],
      "logsBloom": "0x00000010000000000000000000000000400000000000000000800000000000000000000000000000000000000000000000000000000000000000000000200000000000000000000000000000000000000000000000000000000000000000000000000000000000000000000200000000000000000000000000000000000000000000000000080000000000000000000000000000000000000000000000000000020000000000000000000000000000000000000000000001000000000010000000000000000000000000000000000000000000000000000000000000000080000010000000000000000000000010000000000000000000000000000000000000",
      "type": "0x2",
      "transactionHash": "0xd74ba7e8695be70e57de635fa869c6cd16a6912cdac57f55f916c2adc3ccf5c8",
      "transactionIndex": "0x55",
      "blockHash": "0xa5fcdfeea97c0cbb0d9ccef5887ace9c70fc570075be47d1d96d654ee2fdf4e2",
      "blockNumber": "0x9b11ca",
      "gasUsed": "0xb7b9",
      "effectiveGasPrice": "0x38944e94",
      "from": "0x29f4d70a6f8fdd15ee20231b840089e8aed2ae76",
      "to": "0xb33638d05b9a69bb1731027d3f3561cc03ad2c74",
      "contractAddress": null
    },
    {
      "status": "0x1",
      "cumulativeGasUsed": "0x38e15d1",
      "logs": [
        {
          "address": "0x75eaab39eb72db66372852e1beefeba2de5fe7f5",
          "topics": [
            "0x8c5be1e5ebec7d5bd14f71427d1e84f3dd0314c0f7b2291e5b200ac8c7c3b925",
            "0x00000000000000000000000029f4d70a6f8fdd15ee20231b840089e8aed2ae76",
            "0x000000000000000000000000f13d190e9117920c703d79b5f33732e10049b115"
          ],
          "data": "0xffffffffffffffffffffffffffffffffffffffffffffffffffffffffffffffff",
          "blockHash": "0xa5fcdfeea97c0cbb0d9ccef5887ace9c70fc570075be47d1d96d654ee2fdf4e2",
          "blockNumber": "0x9b11ca",
          "blockTimestamp": "0x697e0750",
          "transactionHash": "0xa4c285f2a340a15e654ad79c7216209beb8d933177b8d778c62e3514eccf6731",
          "transactionIndex": "0x56",
          "logIndex": "0x5d",
          "removed": false
        }
      ],
      "logsBloom": "0x00000010000000000000000000000000000000000000000000800000000000000000000000000000000000000000000000000000000000000000000000200000000000000000000000000000000000000000000000000000000000000000000000000000000000000000000000080000000000000000000000000000000000000000000000080000000000000000000000000000000000000000000000000000020000000000000000000000000000000000000000000001000000000010000000000000002000000000000000000000000000000000000000000008000080000010000000000000000000000000000000000000000000000000000000000000",
      "type": "0x2",
      "transactionHash": "0xa4c285f2a340a15e654ad79c7216209beb8d933177b8d778c62e3514eccf6731",
      "transactionIndex": "0x56",
      "blockHash": "0xa5fcdfeea97c0cbb0d9ccef5887ace9c70fc570075be47d1d96d654ee2fdf4e2",
      "blockNumber": "0x9b11ca",
      "gasUsed": "0xb7b9",
      "effectiveGasPrice": "0x38944e94",
      "from": "0x29f4d70a6f8fdd15ee20231b840089e8aed2ae76",
      "to": "0x75eaab39eb72db66372852e1beefeba2de5fe7f5",
      "contractAddress": null
    },
    {
      "status": "0x1",
      "cumulativeGasUsed": "0x38ecd8a",
      "logs": [
        {
          "address": "0xf4eb0d2406ad8897c0350b7be2551663a765c234",
          "topics": [
            "0x8c5be1e5ebec7d5bd14f71427d1e84f3dd0314c0f7b2291e5b200ac8c7c3b925",
            "0x00000000000000000000000029f4d70a6f8fdd15ee20231b840089e8aed2ae76",
            "0x000000000000000000000000f13d190e9117920c703d79b5f33732e10049b115"
          ],
          "data": "0xffffffffffffffffffffffffffffffffffffffffffffffffffffffffffffffff",
          "blockHash": "0xa5fcdfeea97c0cbb0d9ccef5887ace9c70fc570075be47d1d96d654ee2fdf4e2",
          "blockNumber": "0x9b11ca",
          "blockTimestamp": "0x697e0750",
          "transactionHash": "0xe47a71a799a242a55a505cb9a1d0fcc997373ee61b28aa079038a645d5d018bb",
          "transactionIndex": "0x57",
          "logIndex": "0x5e",
          "removed": false
        }
      ],
      "logsBloom": "0x00000010000000000000000000000000000000000000000000800000000000000000000000000000000000000000000000000200000000000000000000200000000000000000000000000000000000000000000000000000000000000000000000000000000000000000000000000000000000000000000000000000000000000000000000080000000000000000000000000000000000000000000000000000020000000000000000000000000000000000000000000001000000000010000000000000000000000000000000000000000000000000000000000000000080000010000000000000000000000000000000002000000000000000000000000400",
      "type": "0x2",
      "transactionHash": "0xe47a71a799a242a55a505cb9a1d0fcc997373ee61b28aa079038a645d5d018bb",
      "transactionIndex": "0x57",
      "blockHash": "0xa5fcdfeea97c0cbb0d9ccef5887ace9c70fc570075be47d1d96d654ee2fdf4e2",
      "blockNumber": "0x9b11ca",
      "gasUsed": "0xb7b9",
      "effectiveGasPrice": "0x38944e94",
      "from": "0x29f4d70a6f8fdd15ee20231b840089e8aed2ae76",
      "to": "0xf4eb0d2406ad8897c0350b7be2551663a765c234",
      "contractAddress": null
    },
    {
      "status": "0x1",
      "cumulativeGasUsed": "0x39156d0",
      "logs": [
        {
          "address": "0x4112af357570adc7c6d35801af1d64eeb57e90c0",
          "topics": [
            "0xd2adfdf76f1b49cd0444f935638cd43e6effec410592a55f90e2ebbdb5d9c4bc",
            "0x9678bc6421e11d6f5d2d5fea508093b498f605629c7085c7d8f435339049619b"
          ],
          "data": "0x0000000000000000000000000000000000000000000000000000000000000bb8000000000000000000000000000000000000000000000000000000000000000a",
          "blockHash": "0xa5fcdfeea97c0cbb0d9ccef5887ace9c70fc570075be47d1d96d654ee2fdf4e2",
          "blockNumber": "0x9b11ca",
          "blockTimestamp": "0x697e0750",
          "transactionHash": "0x289744ea0f44227a44fec4d9ce78cc5c73a5961f47d0b85ff4a2da143234790a",
          "transactionIndex": "0x58",
          "logIndex": "0x5f",
          "removed": false
        },
        {
          "address": "0xe03a1074c86cfedd5c142c4f04f1a1536e203543",
          "topics": [
            "0x40e9cecb9f5f1f1c5b9c97dec2917b7ee92e57ba5563708daca94dd84ad7112f",
            "0x9678bc6421e11d6f5d2d5fea508093b498f605629c7085c7d8f435339049619b",
            "0x000000000000000000000000f13d190e9117920c703d79b5f33732e10049b115"
          ],
          "data": "0xffffffffffffffffffffffffffffffffffffffffffffffffffdc790d903f0000000000000000000000000000000000000000000000000000002362a176fca7380000000000000000000000000000000000000000ffbeb9c6970024779a0a218f0000000000000000000000000000000000000000000000008ac7230489e80000ffffffffffffffffffffffffffffffffffffffffffffffffffffffffffffffec0000000000000000000000000000000000000000000000000000000000000bb8",
          "blockHash": "0xa5fcdfeea97c0cbb0d9ccef5887ace9c70fc570075be47d1d96d654ee2fdf4e2",
          "blockNumber": "0x9b11ca",
          "blockTimestamp": "0x697e0750",
          "transactionHash": "0x289744ea0f44227a44fec4d9ce78cc5c73a5961f47d0b85ff4a2da143234790a",
          "transactionIndex": "0x58",
          "logIndex": "0x60",
          "removed": false
        },
        {
          "address": "0xb33638d05b9a69bb1731027d3f3561cc03ad2c74",
          "topics": [
            "0xddf252ad1be2c89b69c2b068fc378daa952ba7f163c4a11628f55a4df523b3ef",
            "0x00000000000000000000000029f4d70a6f8fdd15ee20231b840089e8aed2ae76",
            "0x000000000000000000000000e03a1074c86cfedd5c142c4f04f1a1536e203543"
          ],
          "data": "0x000000000000000000000000000000000000000000000000002386f26fc10000",
          "blockHash": "0xa5fcdfeea97c0cbb0d9ccef5887ace9c70fc570075be47d1d96d654ee2fdf4e2",
          "blockNumber": "0x9b11ca",
          "blockTimestamp": "0x697e0750",
          "transactionHash": "0x289744ea0f44227a44fec4d9ce78cc5c73a5961f47d0b85ff4a2da143234790a",
          "transactionIndex": "0x58",
          "logIndex": "0x61",
          "removed": false
        },
        {
          "address": "0xf4eb0d2406ad8897c0350b7be2551663a765c234",
          "topics": [
            "0xddf252ad1be2c89b69c2b068fc378daa952ba7f163c4a11628f55a4df523b3ef",
            "0x000000000000000000000000e03a1074c86cfedd5c142c4f04f1a1536e203543",
            "0x00000000000000000000000029f4d70a6f8fdd15ee20231b840089e8aed2ae76"
          ],
          "data": "0x000000000000000000000000000000000000000000000000002362a176fca738",
          "blockHash": "0xa5fcdfeea97c0cbb0d9ccef5887ace9c70fc570075be47d1d96d654ee2fdf4e2",
          "blockNumber": "0x9b11ca",
          "blockTimestamp": "0x697e0750",
          "transactionHash": "0x289744ea0f44227a44fec4d9ce78cc5c73a5961f47d0b85ff4a2da143234790a",
          "transactionIndex": "0x58",
          "logIndex": "0x62",
          "removed": false
        }
      ],
      "logsBloom": "0x00000010000000000000000000000004400000000000000000800000000000000000000010000000000000000000000000000300040000000000000000000000020000000000000000100088000000000000000000000020000000400000000000000000000000000000000280000000000000000000100000000010000000000000000000080000000010000000000000000000000000000000000000000000000000000000000000004000000000000000000000000001000000000010200000000002000000000000000000000000000000000000000000001000000080001000000000000000004000000010000000002000400000000000000000000400",
      "type": "0x2",
      "transactionHash": "0x289744ea0f44227a44fec4d9ce78cc5c73a5961f47d0b85ff4a2da143234790a",
      "transactionIndex": "0x58",
      "blockHash": "0xa5fcdfeea97c0cbb0d9ccef5887ace9c70fc570075be47d1d96d654ee2fdf4e2",
      "blockNumber": "0x9b11ca",
      "gasUsed": "0x28946",
      "effectiveGasPrice": "0x38944e94",
      "from": "0x29f4d70a6f8fdd15ee20231b840089e8aed2ae76",
      "to": "0xf13d190e9117920c703d79b5f33732e10049b115",
      "contractAddress": null
    },
    {
      "status": "0x1",
      "cumulativeGasUsed": "0x311479",
      "logs": [
        {
          "address": "0x4112af357570adc7c6d35801af1d64eeb57e90c0",
          "topics": [
            "0xd2adfdf76f1b49cd0444f935638cd43e6effec410592a55f90e2ebbdb5d9c4bc",
            "0x9678bc6421e11d6f5d2d5fea508093b498f605629c7085c7d8f435339049619b"
          ],
          "data": "0x000000000000000000000000000000000000000000000000000000000000271000000000000000000000000000000000000000000000000000000000000001f4",
          "blockHash": "0xf8d4a7d8c8c0bf1cfe700a4e6f328a29e984b77fa4118bc59e6439d500bf5be0",
          "blockNumber": "0x9b11cb",
          "blockTimestamp": "0x697e075c",
          "transactionHash": "0x7623fd766fe013a2ce2a92f494110068efa83872bea6ea9654cfffe711ef7b5d",
          "transactionIndex": "0x3a",
          "logIndex": "0x2d",
          "removed": false
        },
        {
          "address": "0xe03a1074c86cfedd5c142c4f04f1a1536e203543",
          "topics": [
            "0x40e9cecb9f5f1f1c5b9c97dec2917b7ee92e57ba5563708daca94dd84ad7112f",
            "0x9678bc6421e11d6f5d2d5fea508093b498f605629c7085c7d8f435339049619b",
            "0x000000000000000000000000f13d190e9117920c703d79b5f33732e10049b115"
          ],
          "data": "0xfffffffffffffffffffffffffffffffffffffffffffffffff90fa4a62c4e000000000000000000000000000000000000000000000000000006886416cc5cab720000000000000000000000000000000000000000f3b1b577d47ce82b5d299eac0000000000000000000000000000000000000000000000008ac7230489e80000fffffffffffffffffffffffffffffffffffffffffffffffffffffffffffffc260000000000000000000000000000000000000000000000000000000000002710",
          "blockHash": "0xf8d4a7d8c8c0bf1cfe700a4e6f328a29e984b77fa4118bc59e6439d500bf5be0",
          "blockNumber": "0x9b11cb",
          "blockTimestamp": "0x697e075c",
          "transactionHash": "0x7623fd766fe013a2ce2a92f494110068efa83872bea6ea9654cfffe711ef7b5d",
          "transactionIndex": "0x3a",
          "logIndex": "0x2e",
          "removed": false
        },
        {
          "address": "0xb33638d05b9a69bb1731027d3f3561cc03ad2c74",
          "topics": [
            "0xddf252ad1be2c89b69c2b068fc378daa952ba7f163c4a11628f55a4df523b3ef",
            "0x00000000000000000000000029f4d70a6f8fdd15ee20231b840089e8aed2ae76",
            "0x000000000000000000000000e03a1074c86cfedd5c142c4f04f1a1536e203543"
          ],
          "data": "0x00000000000000000000000000000000000000000000000006f05b59d3b20000",
          "blockHash": "0xf8d4a7d8c8c0bf1cfe700a4e6f328a29e984b77fa4118bc59e6439d500bf5be0",
          "blockNumber": "0x9b11cb",
          "blockTimestamp": "0x697e075c",
          "transactionHash": "0x7623fd766fe013a2ce2a92f494110068efa83872bea6ea9654cfffe711ef7b5d",
          "transactionIndex": "0x3a",
          "logIndex": "0x2f",
          "removed": false
        },
        {
          "address": "0xf4eb0d2406ad8897c0350b7be2551663a765c234",
          "topics": [
            "0xddf252ad1be2c89b69c2b068fc378daa952ba7f163c4a11628f55a4df523b3ef",
            "0x000000000000000000000000e03a1074c86cfedd5c142c4f04f1a1536e203543",
            "0x00000000000000000000000029f4d70a6f8fdd15ee20231b840089e8aed2ae76"
          ],
          "data": "0x00000000000000000000000000000000000000000000000006886416cc5cab72",
          "blockHash": "0xf8d4a7d8c8c0bf1cfe700a4e6f328a29e984b77fa4118bc59e6439d500bf5be0",
          "blockNumber": "0x9b11cb",
          "blockTimestamp": "0x697e075c",
          "transactionHash": "0x7623fd766fe013a2ce2a92f494110068efa83872bea6ea9654cfffe711ef7b5d",
          "transactionIndex": "0x3a",
          "logIndex": "0x30",
          "removed": false
        }
      ],
      "logsBloom": "0x00000010000000000000000000000004400000000000000000800000000000000000000010000000000000000000000000000300040000000000000000000000020000000000000000100088000000000000000000000020000000400000000000000000000000000000000280000000000000000000100000000010000000000000000000080000000010000000000000000000000000000000000000000000000000000000000000004000000000000000000000000001000000000010200000000002000000000000000000000000000000000000000000001000000080001000000000000000004000000010000000002000400000000000000000000400",
      "type": "0x2",
      "transactionHash": "0x7623fd766fe013a2ce2a92f494110068efa83872bea6ea9654cfffe711ef7b5d",
      "transactionIndex": "0x3a",
      "blockHash": "0xf8d4a7d8c8c0bf1cfe700a4e6f328a29e984b77fa4118bc59e6439d500bf5be0",
      "blockNumber": "0x9b11cb",
      "gasUsed": "0x232ce",
      "effectiveGasPrice": "0x3fa18c18",
      "from": "0x29f4d70a6f8fdd15ee20231b840089e8aed2ae76",
      "to": "0xf13d190e9117920c703d79b5f33732e10049b115",
      "contractAddress": null
    },
    {
      "status": "0x1",
      "cumulativeGasUsed": "0x330d4b",
      "logs": [
        {
          "address": "0xe03a1074c86cfedd5c142c4f04f1a1536e203543",
          "topics": [
            "0x40e9cecb9f5f1f1c5b9c97dec2917b7ee92e57ba5563708daca94dd84ad7112f",
            "0xa809bca02a254188e0547595bf5dae238b8a5e807e3e699c3204f13742ed0e3e",
            "0x000000000000000000000000f13d190e9117920c703d79b5f33732e10049b115"
          ],
          "data": "0xfffffffffffffffffffffffffffffffffffffffffffffffd4a1c50e94e78000000000000000000000000000000000000000000000000000292f5690eb6142dfd0000000000000000000000000000000000000000f3d827e497865ed4c113725400000000000000000000000000000000000000000000003635c9adc5dea00000fffffffffffffffffffffffffffffffffffffffffffffffffffffffffffffc330000000000000000000000000000000000000000000000000000000000000bb8",
          "blockHash": "0xf8d4a7d8c8c0bf1cfe700a4e6f328a29e984b77fa4118bc59e6439d500bf5be0",
          "blockNumber": "0x9b11cb",
          "blockTimestamp": "0x697e075c",
          "transactionHash": "0x6e2f513d6920aeb3ab47f61be196f2d50f75c8dc391d449e982cbecec6a8b7a7",
          "transactionIndex": "0x3b",
          "logIndex": "0x31",
          "removed": false
        },
        {
          "address": "0x75eaab39eb72db66372852e1beefeba2de5fe7f5",
          "topics": [
            "0xddf252ad1be2c89b69c2b068fc378daa952ba7f163c4a11628f55a4df523b3ef",
            "0x00000000000000000000000029f4d70a6f8fdd15ee20231b840089e8aed2ae76",
            "0x000000000000000000000000e03a1074c86cfedd5c142c4f04f1a1536e203543"
          ],
          "data": "0x000000000000000000000000000000000000000000000002b5e3af16b1880000",
          "blockHash": "0xf8d4a7d8c8c0bf1cfe700a4e6f328a29e984b77fa4118bc59e6439d500bf5be0",
          "blockNumber": "0x9b11cb",
          "blockTimestamp": "0x697e075c",
          "transactionHash": "0x6e2f513d6920aeb3ab47f61be196f2d50f75c8dc391d449e982cbecec6a8b7a7",
          "transactionIndex": "0x3b",
          "logIndex": "0x32",
          "removed": false
        },
        {
          "address": "0xb33638d05b9a69bb1731027d3f3561cc03ad2c74",
          "topics": [
            "0xddf252ad1be2c89b69c2b068fc378daa952ba7f163c4a11628f55a4df523b3ef",
            "0x000000000000000000000000e03a1074c86cfedd5c142c4f04f1a1536e203543",
            "0x00000000000000000000000029f4d70a6f8fdd15ee20231b840089e8aed2ae76"
          ],
          "data": "0x00000000000000000000000000000000000000000000000292f5690eb6142dfd",
          "blockHash": "0xf8d4a7d8c8c0bf1cfe700a4e6f328a29e984b77fa4118bc59e6439d500bf5be0",
          "blockNumber": "0x9b11cb",
          "blockTimestamp": "0x697e075c",
          "transactionHash": "0x6e2f513d6920aeb3ab47f61be196f2d50f75c8dc391d449e982cbecec6a8b7a7",
          "transactionIndex": "0x3b",
          "logIndex": "0x33",
          "removed": false
        }
      ],
      "logsBloom": "0x00000010000000000000000000000000400000000000000000800000000000000000000000000000000000000000000000000100040001000000000000000000000000000000000000000008000000000000000000000020000000000000000000000000000000000000000280080000000000000000100000000010000000000000000000080000000010000000000000000000000000000000000000000000400000000000000000000000000000000000000000000001000000000010000000000002002000000000000000000000000000000000002000001008000080001000000000000000004000000010000000000000000000000000000000000000",
      "type": "0x2",
      "transactionHash": "0x6e2f513d6920aeb3ab47f61be196f2d50f75c8dc391d449e982cbecec6a8b7a7",
      "transactionIndex": "0x3b",
      "blockHash": "0xf8d4a7d8c8c0bf1cfe700a4e6f328a29e984b77fa4118bc59e6439d500bf5be0",
      "blockNumber": "0x9b11cb",
      "gasUsed": "0x1f8d2",
      "effectiveGasPrice": "0x3fa18c18",
      "from": "0x29f4d70a6f8fdd15ee20231b840089e8aed2ae76",
      "to": "0xf13d190e9117920c703d79b5f33732e10049b115",
      "contractAddress": null
    },
    {
      "status": "0x1",
      "cumulativeGasUsed": "0x354a5a",
      "logs": [
        {
          "address": "0x4112af357570adc7c6d35801af1d64eeb57e90c0",
          "topics": [
            "0xd2adfdf76f1b49cd0444f935638cd43e6effec410592a55f90e2ebbdb5d9c4bc",
            "0x9678bc6421e11d6f5d2d5fea508093b498f605629c7085c7d8f435339049619b"
          ],
          "data": "0x0000000000000000000000000000000000000000000000000000000000000bb80000000000000000000000000000000000000000000000000000000000000000",
          "blockHash": "0xf8d4a7d8c8c0bf1cfe700a4e6f328a29e984b77fa4118bc59e6439d500bf5be0",
          "blockNumber": "0x9b11cb",
          "blockTimestamp": "0x697e075c",
          "transactionHash": "0x9bbdad20742e351aa921d56db31b489fb36803381c2102591de7a70e6ad2cff4",
          "transactionIndex": "0x3c",
          "logIndex": "0x34",
          "removed": false
        },
        {
          "address": "0xe03a1074c86cfedd5c142c4f04f1a1536e203543",
          "topics": [
            "0x40e9cecb9f5f1f1c5b9c97dec2917b7ee92e57ba5563708daca94dd84ad7112f",
            "0x9678bc6421e11d6f5d2d5fea508093b498f605629c7085c7d8f435339049619b",
            "0x000000000000000000000000f13d190e9117920c703d79b5f33732e10049b115"
          ],
          "data": "0xfffffffffffffffffffffffffffffffffffffffffffffffff90fa4a62c4e000000000000000000000000000000000000000000000000000005fc260b1594df1a0000000000000000000000000000000000000000e8a764bed3544c73ee721fea0000000000000000000000000000000000000000000000008ac7230489e80000fffffffffffffffffffffffffffffffffffffffffffffffffffffffffffff8870000000000000000000000000000000000000000000000000000000000000bb8",
          "blockHash": "0xf8d4a7d8c8c0bf1cfe700a4e6f328a29e984b77fa4118bc59e6439d500bf5be0",
          "blockNumber": "0x9b11cb",
          "blockTimestamp": "0x697e075c",
          "transactionHash": "0x9bbdad20742e351aa921d56db31b489fb36803381c2102591de7a70e6ad2cff4",
          "transactionIndex": "0x3c",
          "logIndex": "0x35",
          "removed": false
        },
        {
          "address": "0xb33638d05b9a69bb1731027d3f3561cc03ad2c74",
          "topics": [
            "0xddf252ad1be2c89b69c2b068fc378daa952ba7f163c4a11628f55a4df523b3ef",
            "0x00000000000000000000000029f4d70a6f8fdd15ee20231b840089e8aed2ae76",
            "0x000000000000000000000000e03a1074c86cfedd5c142c4f04f1a1536e203543"
          ],
          "data": "0x00000000000000000000000000000000000000000000000006f05b59d3b20000",
          "blockHash": "0xf8d4a7d8c8c0bf1cfe700a4e6f328a29e984b77fa4118bc59e6439d500bf5be0",
          "blockNumber": "0x9b11cb",
          "blockTimestamp": "0x697e075c",
          "transactionHash": "0x9bbdad20742e351aa921d56db31b489fb36803381c2102591de7a70e6ad2cff4",
          "transactionIndex": "0x3c",
          "logIndex": "0x36",
          "removed": false
        },
        {
          "address": "0xf4eb0d2406ad8897c0350b7be2551663a765c234",
          "topics": [
            "0xddf252ad1be2c89b69c2b068fc378daa952ba7f163c4a11628f55a4df523b3ef",
            "0x000000000000000000000000e03a1074c86cfedd5c142c4f04f1a1536e203543",
            "0x00000000000000000000000029f4d70a6f8fdd15ee20231b840089e8aed2ae76"
          ],
          "data": "0x00000000000000000000000000000000000000000000000005fc260b1594df1a",
          "blockHash": "0xf8d4a7d8c8c0bf1cfe700a4e6f328a29e984b77fa4118bc59e6439d500bf5be0",
          "blockNumber": "0x9b11cb",
          "blockTimestamp": "0x697e075c",
          "transactionHash": "0x9bbdad20742e351aa921d56db31b489fb36803381c2102591de7a70e6ad2cff4",
          "transactionIndex": "0x3c",
          "logIndex": "0x37",
          "removed": false
        }
      ],
      "logsBloom": "0x00000010000000000000000000000004400000000000000000800000000000000000000010000000000000000000000000000300040000000000000000000000020000000000000000100088000000000000000000000020000000400000000000000000000000000000000280000000000000000000100000000010000000000000000000080000000010000000000000000000000000000000000000000000000000000000000000004000000000000000000000000001000000000010200000000002000000000000000000000000000000000000000000001000000080001000000000000000004000000010000000002000400000000000000000000400",
      "type": "0x2",
      "transactionHash": "0x9bbdad20742e351aa921d56db31b489fb36803381c2102591de7a70e6ad2cff4",
      "transactionIndex": "0x3c",
      "blockHash": "0xf8d4a7d8c8c0bf1cfe700a4e6f328a29e984b77fa4118bc59e6439d500bf5be0",
      "blockNumber": "0x9b11cb",
      "gasUsed": "0x23d0f",
      "effectiveGasPrice": "0x3fa18c18",
      "from": "0x29f4d70a6f8fdd15ee20231b840089e8aed2ae76",
      "to": "0xf13d190e9117920c703d79b5f33732e10049b115",
      "contractAddress": null
    }
  ],
  "libraries": [],
  "pending": [],
  "returns": {},
  "timestamp": 1769867101966,
  "chain": 11155111,
  "commit": "80e3349"
}